{
  "abi": [
    {
      "inputs": [],
      "stateMutability": "nonpayable",
      "type": "constructor"
    },
    {
      "inputs": [],
      "name": "BuyTickets",
      "outputs": [],
      "stateMutability": "payable",
      "type": "function"
    },
    {
      "inputs": [],
      "name": "CurrentWinningReward",
      "outputs": [
        {
          "internalType": "uint256",
          "name": "",
          "type": "uint256"
        }
      ],
      "stateMutability": "view",
      "type": "function"
    },
    {
      "inputs": [],
      "name": "DrawWinnerTicket",
      "outputs": [],
      "stateMutability": "nonpayable",
      "type": "function"
    },
    {
      "inputs": [],
      "name": "IsWinner",
      "outputs": [
        {
          "internalType": "bool",
          "name": "",
          "type": "bool"
        }
      ],
      "stateMutability": "view",
      "type": "function"
    },
    {
      "inputs": [],
      "name": "RefundAll",
      "outputs": [],
      "stateMutability": "nonpayable",
      "type": "function"
    },
    {
      "inputs": [],
      "name": "RemainingTickets",
      "outputs": [
        {
          "internalType": "uint256",
          "name": "",
          "type": "uint256"
        }
      ],
      "stateMutability": "view",
      "type": "function"
    },
    {
      "inputs": [],
      "name": "WithdrawCommission",
      "outputs": [],
      "stateMutability": "nonpayable",
      "type": "function"
    },
    {
      "inputs": [],
      "name": "WithdrawWinnings",
      "outputs": [],
      "stateMutability": "nonpayable",
      "type": "function"
    },
    {
      "inputs": [],
      "name": "checkWinningsAmount",
      "outputs": [
        {
          "internalType": "uint256",
          "name": "",
          "type": "uint256"
        }
      ],
      "stateMutability": "view",
      "type": "function"
    },
    {
      "inputs": [],
      "name": "duration",
      "outputs": [
        {
          "internalType": "uint256",
          "name": "",
          "type": "uint256"
        }
      ],
      "stateMutability": "view",
      "type": "function"
    },
    {
      "inputs": [],
      "name": "expiration",
      "outputs": [
        {
          "internalType": "uint256",
          "name": "",
          "type": "uint256"
        }
      ],
      "stateMutability": "view",
      "type": "function"
    },
    {
      "inputs": [],
      "name": "getTickets",
      "outputs": [
        {
          "internalType": "address[]",
          "name": "",
          "type": "address[]"
        }
      ],
      "stateMutability": "view",
      "type": "function"
    },
    {
      "inputs": [
        {
          "internalType": "address",
          "name": "addr",
          "type": "address"
        }
      ],
      "name": "getWinningsForAddress",
      "outputs": [
        {
          "internalType": "uint256",
          "name": "",
          "type": "uint256"
        }
      ],
      "stateMutability": "view",
      "type": "function"
    },
    {
      "inputs": [],
      "name": "lastWinner",
      "outputs": [
        {
          "internalType": "address",
          "name": "",
          "type": "address"
        }
      ],
      "stateMutability": "view",
      "type": "function"
    },
    {
      "inputs": [],
      "name": "lastWinnerAmount",
      "outputs": [
        {
          "internalType": "uint256",
          "name": "",
          "type": "uint256"
        }
      ],
      "stateMutability": "view",
      "type": "function"
    },
    {
      "inputs": [],
      "name": "lotteryOperator",
      "outputs": [
        {
          "internalType": "address",
          "name": "",
          "type": "address"
        }
      ],
      "stateMutability": "view",
      "type": "function"
    },
    {
      "inputs": [],
      "name": "maxTickets",
      "outputs": [
        {
          "internalType": "uint256",
          "name": "",
          "type": "uint256"
        }
      ],
      "stateMutability": "view",
      "type": "function"
    },
    {
      "inputs": [],
      "name": "operatorTotalCommission",
      "outputs": [
        {
          "internalType": "uint256",
          "name": "",
          "type": "uint256"
        }
      ],
      "stateMutability": "view",
      "type": "function"
    },
    {
      "inputs": [],
      "name": "restartDraw",
      "outputs": [],
      "stateMutability": "nonpayable",
      "type": "function"
    },
    {
      "inputs": [],
      "name": "ticketCommission",
      "outputs": [
        {
          "internalType": "uint256",
          "name": "",
          "type": "uint256"
        }
      ],
      "stateMutability": "view",
      "type": "function"
    },
    {
      "inputs": [],
      "name": "ticketPrice",
      "outputs": [
        {
          "internalType": "uint256",
          "name": "",
          "type": "uint256"
        }
      ],
      "stateMutability": "view",
      "type": "function"
    },
    {
      "inputs": [
        {
          "internalType": "uint256",
          "name": "",
          "type": "uint256"
        }
      ],
      "name": "tickets",
      "outputs": [
        {
          "internalType": "address",
          "name": "",
          "type": "address"
        }
      ],
      "stateMutability": "view",
      "type": "function"
    },
    {
      "inputs": [
        {
          "internalType": "address",
          "name": "",
          "type": "address"
        }
      ],
      "name": "winnings",
      "outputs": [
        {
          "internalType": "uint256",
          "name": "",
          "type": "uint256"
        }
      ],
      "stateMutability": "view",
      "type": "function"
    }
  ],
  "devdoc": {
    "kind": "dev",
    "methods": {},
    "version": 1
  },
  "evm": {
    "assembly": "    /* \"Lottery_20230205205541.sol\":127:4756  contract Lottery {... */\n  mstore(0x40, 0x80)\n    /* \"Lottery_20230205205541.sol\":660:661  0 */\n  0x00\n    /* \"Lottery_20230205205541.sol\":619:661  uint256 public operatorTotalCommission = 0 */\n  0x02\n  sstore\n    /* \"Lottery_20230205205541.sol\":1385:1496  constructor() {... */\n  callvalue\n  dup1\n  iszero\n  tag_1\n  jumpi\n  0x00\n  dup1\n  revert\ntag_1:\n  pop\n    /* \"Lottery_20230205205541.sol\":1410:1425  lotteryOperator */\n  0x01\n    /* \"Lottery_20230205205541.sol\":1410:1438  lotteryOperator = msg.sender */\n  dup1\n  sload\n  not(sub(shl(0xa0, 0x01), 0x01))\n  and\n    /* \"Lottery_20230205205541.sol\":1428:1438  msg.sender */\n  caller\n    /* \"Lottery_20230205205541.sol\":1410:1438  lotteryOperator = msg.sender */\n  or\n  swap1\n  sstore\n    /* \"Lottery_20230205205541.sol\":1462:1488  block.timestamp + duration */\n  tag_4\n    /* \"Lottery_20230205205541.sol\":409:419  60 minutes */\n  0x0e10\n    /* \"Lottery_20230205205541.sol\":1462:1477  block.timestamp */\n  timestamp\n    /* \"Lottery_20230205205541.sol\":1462:1488  block.timestamp + duration */\n  tag_5\n  jump\t// in\ntag_4:\n    /* \"Lottery_20230205205541.sol\":1449:1459  expiration */\n  0x00\n    /* \"Lottery_20230205205541.sol\":1449:1488  expiration = block.timestamp + duration */\n  sstore\n    /* \"Lottery_20230205205541.sol\":127:4756  contract Lottery {... */\n  jump(tag_7)\n    /* \"#utility.yul\":14:236   */\ntag_5:\n    /* \"#utility.yul\":79:88   */\n  dup1\n  dup3\n  add\n    /* \"#utility.yul\":100:110   */\n  dup1\n  dup3\n  gt\n    /* \"#utility.yul\":97:230   */\n  iszero\n  tag_9\n  jumpi\n    /* \"#utility.yul\":152:162   */\n  0x4e487b71\n    /* \"#utility.yul\":147:150   */\n  0xe0\n    /* \"#utility.yul\":143:163   */\n  shl\n    /* \"#utility.yul\":140:141   */\n  0x00\n    /* \"#utility.yul\":133:164   */\n  mstore\n    /* \"#utility.yul\":187:191   */\n  0x11\n    /* \"#utility.yul\":184:185   */\n  0x04\n    /* \"#utility.yul\":177:192   */\n  mstore\n    /* \"#utility.yul\":215:219   */\n  0x24\n    /* \"#utility.yul\":212:213   */\n  0x00\n    /* \"#utility.yul\":205:220   */\n  revert\n    /* \"#utility.yul\":97:230   */\ntag_9:\n    /* \"#utility.yul\":14:236   */\n  swap3\n  swap2\n  pop\n  pop\n  jump\t// out\ntag_7:\n    /* \"Lottery_20230205205541.sol\":127:4756  contract Lottery {... */\n  dataSize(sub_0)\n  dup1\n  dataOffset(sub_0)\n  0x00\n  codecopy\n  0x00\n  return\nstop\n\nsub_0: assembly {\n        /* \"Lottery_20230205205541.sol\":127:4756  contract Lottery {... */\n      mstore(0x40, 0x80)\n      jumpi(tag_1, lt(calldatasize, 0x04))\n      shr(0xe0, calldataload(0x00))\n      dup1\n      0x71827b7b\n      gt\n      tag_25\n      jumpi\n      dup1\n      0xba946d79\n      gt\n      tag_26\n      jumpi\n      dup1\n      0xea3a1499\n      gt\n      tag_27\n      jumpi\n      dup1\n      0xea3a1499\n      eq\n      tag_22\n      jumpi\n      dup1\n      0xf2613269\n      eq\n      tag_23\n      jumpi\n      dup1\n      0xfe188184\n      eq\n      tag_24\n      jumpi\n      0x00\n      dup1\n      revert\n    tag_27:\n      dup1\n      0xba946d79\n      eq\n      tag_19\n      jumpi\n      dup1\n      0xc6944fa0\n      eq\n      tag_20\n      jumpi\n      dup1\n      0xdd64e534\n      eq\n      tag_21\n      jumpi\n      0x00\n      dup1\n      revert\n    tag_26:\n      dup1\n      0x96c85ef3\n      gt\n      tag_28\n      jumpi\n      dup1\n      0x96c85ef3\n      eq\n      tag_16\n      jumpi\n      dup1\n      0x9b894703\n      eq\n      tag_17\n      jumpi\n      dup1\n      0xa88f4672\n      eq\n      tag_18\n      jumpi\n      0x00\n      dup1\n      revert\n    tag_28:\n      dup1\n      0x71827b7b\n      eq\n      tag_13\n      jumpi\n      dup1\n      0x91d8b14e\n      eq\n      tag_14\n      jumpi\n      dup1\n      0x93a563b5\n      eq\n      tag_15\n      jumpi\n      0x00\n      dup1\n      revert\n    tag_25:\n      dup1\n      0x4665096d\n      gt\n      tag_29\n      jumpi\n      dup1\n      0x50b44712\n      gt\n      tag_30\n      jumpi\n      dup1\n      0x50b44712\n      eq\n      tag_10\n      jumpi\n      dup1\n      0x5a58acdd\n      eq\n      tag_11\n      jumpi\n      dup1\n      0x6032a4f9\n      eq\n      tag_12\n      jumpi\n      0x00\n      dup1\n      revert\n    tag_30:\n      dup1\n      0x4665096d\n      eq\n      tag_7\n      jumpi\n      dup1\n      0x4788af7c\n      eq\n      tag_8\n      jumpi\n      dup1\n      0x4ed02622\n      eq\n      tag_9\n      jumpi\n      0x00\n      dup1\n      revert\n    tag_29:\n      dup1\n      0x0fb5a6b4\n      gt\n      tag_31\n      jumpi\n      dup1\n      0x0fb5a6b4\n      eq\n      tag_4\n      jumpi\n      dup1\n      0x1209b1f6\n      eq\n      tag_5\n      jumpi\n      dup1\n      0x35580df2\n      eq\n      tag_6\n      jumpi\n      0x00\n      dup1\n      revert\n    tag_31:\n      dup1\n      0x06f7f3bf\n      eq\n      tag_2\n      jumpi\n      dup1\n      0x0789c607\n      eq\n      tag_3\n      jumpi\n    tag_1:\n      0x00\n      dup1\n      revert\n        /* \"Lottery_20230205205541.sol\":766:797  uint256 public lastWinnerAmount */\n    tag_2:\n      callvalue\n      dup1\n      iszero\n      tag_32\n      jumpi\n      0x00\n      dup1\n      revert\n    tag_32:\n      pop\n      tag_33\n      sload(0x04)\n      dup2\n      jump\n    tag_33:\n      mload(0x40)\n        /* \"#utility.yul\":160:185   */\n      swap1\n      dup2\n      mstore\n        /* \"#utility.yul\":148:150   */\n      0x20\n        /* \"#utility.yul\":133:151   */\n      add\n        /* \"Lottery_20230205205541.sol\":766:797  uint256 public lastWinnerAmount */\n    tag_35:\n      mload(0x40)\n      dup1\n      swap2\n      sub\n      swap1\n      return\n        /* \"Lottery_20230205205541.sol\":3319:3533  function checkWinningsAmount() public view returns (uint256) {... */\n    tag_3:\n      callvalue\n      dup1\n      iszero\n      tag_37\n      jumpi\n      0x00\n      dup1\n      revert\n    tag_37:\n      pop\n        /* \"Lottery_20230205205541.sol\":3424:3434  msg.sender */\n      caller\n        /* \"Lottery_20230205205541.sol\":3371:3378  uint256 */\n      0x00\n        /* \"Lottery_20230205205541.sol\":3474:3490  winnings[winner] */\n      swap1\n      dup2\n      mstore\n        /* \"Lottery_20230205205541.sol\":3474:3482  winnings */\n      0x05\n        /* \"Lottery_20230205205541.sol\":3474:3490  winnings[winner] */\n      0x20\n      mstore\n      0x40\n      swap1\n      keccak256\n      sload\n        /* \"Lottery_20230205205541.sol\":3319:3533  function checkWinningsAmount() public view returns (uint256) {... */\n      jump(tag_33)\n        /* \"Lottery_20230205205541.sol\":374:419  uint256 public constant duration = 60 minutes */\n    tag_4:\n      callvalue\n      dup1\n      iszero\n      tag_41\n      jumpi\n      0x00\n      dup1\n      revert\n    tag_41:\n      pop\n      tag_33\n        /* \"Lottery_20230205205541.sol\":409:419  60 minutes */\n      0x0e10\n        /* \"Lottery_20230205205541.sol\":374:419  uint256 public constant duration = 60 minutes */\n      dup2\n      jump\n        /* \"Lottery_20230205205541.sol\":151:199  uint256 public constant ticketPrice = 0.01 ether */\n    tag_5:\n      callvalue\n      dup1\n      iszero\n      tag_45\n      jumpi\n      0x00\n      dup1\n      revert\n    tag_45:\n      pop\n      tag_33\n        /* \"Lottery_20230205205541.sol\":189:199  0.01 ether */\n      0x2386f26fc10000\n        /* \"Lottery_20230205205541.sol\":151:199  uint256 public constant ticketPrice = 0.01 ether */\n      dup2\n      jump\n        /* \"Lottery_20230205205541.sol\":4137:4405  function WithdrawCommission() public isOperator {... */\n    tag_6:\n      callvalue\n      dup1\n      iszero\n      tag_49\n      jumpi\n      0x00\n      dup1\n      revert\n    tag_49:\n      pop\n      tag_50\n      tag_51\n      jump\t// in\n    tag_50:\n      stop\n        /* \"Lottery_20230205205541.sol\":464:489  uint256 public expiration */\n    tag_7:\n      callvalue\n      dup1\n      iszero\n      tag_52\n      jumpi\n      0x00\n      dup1\n      revert\n    tag_52:\n      pop\n      tag_33\n      sload(0x00)\n      dup2\n      jump\n        /* \"Lottery_20230205205541.sol\":2358:3096  function DrawWinnerTicket() public isOperator {... */\n    tag_8:\n      callvalue\n      dup1\n      iszero\n      tag_56\n      jumpi\n      0x00\n      dup1\n      revert\n    tag_56:\n      pop\n      tag_50\n      tag_58\n      jump\t// in\n        /* \"Lottery_20230205205541.sol\":1535:1629  function getTickets() public view returns (address[] memory) {... */\n    tag_9:\n      callvalue\n      dup1\n      iszero\n      tag_59\n      jumpi\n      0x00\n      dup1\n      revert\n    tag_59:\n      pop\n      tag_60\n      tag_61\n      jump\t// in\n    tag_60:\n      mload(0x40)\n      tag_35\n      swap2\n      swap1\n      tag_63\n      jump\t// in\n        /* \"Lottery_20230205205541.sol\":935:959  address[] public tickets */\n    tag_10:\n      callvalue\n      dup1\n      iszero\n      tag_64\n      jumpi\n      0x00\n      dup1\n      revert\n    tag_64:\n      pop\n      tag_65\n      tag_66\n      calldatasize\n      0x04\n      tag_67\n      jump\t// in\n    tag_66:\n      tag_68\n      jump\t// in\n    tag_65:\n      mload(0x40)\n      sub(shl(0xa0, 0x01), 0x01)\n        /* \"#utility.yul\":1231:1286   */\n      swap1\n      swap2\n      and\n        /* \"#utility.yul\":1213:1287   */\n      dup2\n      mstore\n        /* \"#utility.yul\":1201:1203   */\n      0x20\n        /* \"#utility.yul\":1186:1204   */\n      add\n        /* \"Lottery_20230205205541.sol\":935:959  address[] public tickets */\n      tag_35\n        /* \"#utility.yul\":1067:1293   */\n      jump\n        /* \"Lottery_20230205205541.sol\":553:583  address public lotteryOperator */\n    tag_11:\n      callvalue\n      dup1\n      iszero\n      tag_71\n      jumpi\n      0x00\n      dup1\n      revert\n    tag_71:\n      pop\n      sload(0x01)\n      tag_65\n      swap1\n      sub(shl(0xa0, 0x01), 0x01)\n      and\n      dup2\n      jump\n        /* \"Lottery_20230205205541.sol\":288:343  uint256 public constant ticketCommission = 0.0005 ether */\n    tag_12:\n      callvalue\n      dup1\n      iszero\n      tag_75\n      jumpi\n      0x00\n      dup1\n      revert\n    tag_75:\n      pop\n      tag_33\n        /* \"Lottery_20230205205541.sol\":331:343  0.0005 ether */\n      0x01c6bf52634000\n        /* \"Lottery_20230205205541.sol\":288:343  uint256 public constant ticketCommission = 0.0005 ether */\n      dup2\n      jump\n        /* \"Lottery_20230205205541.sol\":3541:3779  function WithdrawWinnings() public isWinner {... */\n    tag_13:\n      callvalue\n      dup1\n      iszero\n      tag_79\n      jumpi\n      0x00\n      dup1\n      revert\n    tag_79:\n      pop\n      tag_50\n      tag_81\n      jump\t// in\n        /* \"Lottery_20230205205541.sol\":1760:2350  function BuyTickets() public payable {... */\n    tag_14:\n      tag_50\n      tag_83\n      jump\t// in\n        /* \"Lottery_20230205205541.sol\":4642:4753  function RemainingTickets() public view returns (uint256) {... */\n    tag_15:\n      callvalue\n      dup1\n      iszero\n      tag_84\n      jumpi\n      0x00\n      dup1\n      revert\n    tag_84:\n      pop\n      tag_33\n      tag_86\n      jump\t// in\n        /* \"Lottery_20230205205541.sol\":4413:4510  function IsWinner() public view returns (bool) {... */\n    tag_16:\n      callvalue\n      dup1\n      iszero\n      tag_88\n      jumpi\n      0x00\n      dup1\n      revert\n    tag_88:\n      pop\n        /* \"Lottery_20230205205541.sol\":4487:4497  msg.sender */\n      caller\n        /* \"Lottery_20230205205541.sol\":4454:4458  bool */\n      0x00\n        /* \"Lottery_20230205205541.sol\":4478:4498  winnings[msg.sender] */\n      swap1\n      dup2\n      mstore\n        /* \"Lottery_20230205205541.sol\":4478:4486  winnings */\n      0x05\n        /* \"Lottery_20230205205541.sol\":4478:4498  winnings[msg.sender] */\n      0x20\n      mstore\n      0x40\n      swap1\n      keccak256\n      sload\n        /* \"Lottery_20230205205541.sol\":4478:4502  winnings[msg.sender] > 0 */\n      iszero\n      iszero\n        /* \"Lottery_20230205205541.sol\":4413:4510  function IsWinner() public view returns (bool) {... */\n      mload(0x40)\n        /* \"#utility.yul\":1463:1477   */\n      swap1\n      iszero\n        /* \"#utility.yul\":1456:1478   */\n      iszero\n        /* \"#utility.yul\":1438:1479   */\n      dup2\n      mstore\n        /* \"#utility.yul\":1426:1428   */\n      0x20\n        /* \"#utility.yul\":1411:1429   */\n      add\n        /* \"Lottery_20230205205541.sol\":4413:4510  function IsWinner() public view returns (bool) {... */\n      tag_35\n        /* \"#utility.yul\":1298:1485   */\n      jump\n        /* \"Lottery_20230205205541.sol\":206:250  uint256 public constant maxTickets = 1000000 */\n    tag_17:\n      callvalue\n      dup1\n      iszero\n      tag_93\n      jumpi\n      0x00\n      dup1\n      revert\n    tag_93:\n      pop\n      tag_33\n        /* \"Lottery_20230205205541.sol\":243:250  1000000 */\n      0x0f4240\n        /* \"Lottery_20230205205541.sol\":206:250  uint256 public constant maxTickets = 1000000 */\n      dup2\n      jump\n        /* \"Lottery_20230205205541.sol\":3787:4129  function RefundAll() public {... */\n    tag_18:\n      callvalue\n      dup1\n      iszero\n      tag_97\n      jumpi\n      0x00\n      dup1\n      revert\n    tag_97:\n      pop\n      tag_50\n      tag_99\n      jump\t// in\n        /* \"Lottery_20230205205541.sol\":619:661  uint256 public operatorTotalCommission = 0 */\n    tag_19:\n      callvalue\n      dup1\n      iszero\n      tag_100\n      jumpi\n      0x00\n      dup1\n      revert\n    tag_100:\n      pop\n      tag_33\n      sload(0x02)\n      dup2\n      jump\n        /* \"Lottery_20230205205541.sol\":4518:4634  function CurrentWinningReward() public view returns (uint256) {... */\n    tag_20:\n      callvalue\n      dup1\n      iszero\n      tag_104\n      jumpi\n      0x00\n      dup1\n      revert\n    tag_104:\n      pop\n      tag_33\n      tag_106\n      jump\t// in\n        /* \"Lottery_20230205205541.sol\":1637:1752  function getWinningsForAddress(address addr) public view returns (uint256) {... */\n    tag_21:\n      callvalue\n      dup1\n      iszero\n      tag_108\n      jumpi\n      0x00\n      dup1\n      revert\n    tag_108:\n      pop\n      tag_33\n      tag_110\n      calldatasize\n      0x04\n      tag_111\n      jump\t// in\n    tag_110:\n      sub(shl(0xa0, 0x01), 0x01)\n        /* \"Lottery_20230205205541.sol\":1730:1744  winnings[addr] */\n      and\n        /* \"Lottery_20230205205541.sol\":1703:1710  uint256 */\n      0x00\n        /* \"Lottery_20230205205541.sol\":1730:1744  winnings[addr] */\n      swap1\n      dup2\n      mstore\n        /* \"Lottery_20230205205541.sol\":1730:1738  winnings */\n      0x05\n        /* \"Lottery_20230205205541.sol\":1730:1744  winnings[addr] */\n      0x20\n      mstore\n      0x40\n      swap1\n      keccak256\n      sload\n      swap1\n        /* \"Lottery_20230205205541.sol\":1637:1752  function getWinningsForAddress(address addr) public view returns (uint256) {... */\n      jump\n        /* \"Lottery_20230205205541.sol\":847:890  mapping(address => uint256) public winnings */\n    tag_22:\n      callvalue\n      dup1\n      iszero\n      tag_114\n      jumpi\n      0x00\n      dup1\n      revert\n    tag_114:\n      pop\n      tag_33\n      tag_116\n      calldatasize\n      0x04\n      tag_111\n      jump\t// in\n    tag_116:\n      mstore(0x20, 0x05)\n      0x00\n      swap1\n      dup2\n      mstore\n      0x40\n      swap1\n      keccak256\n      sload\n      dup2\n      jump\n        /* \"Lottery_20230205205541.sol\":3104:3311  function restartDraw() public isOperator {... */\n    tag_23:\n      callvalue\n      dup1\n      iszero\n      tag_119\n      jumpi\n      0x00\n      dup1\n      revert\n    tag_119:\n      pop\n      tag_50\n      tag_121\n      jump\t// in\n        /* \"Lottery_20230205205541.sol\":700:725  address public lastWinner */\n    tag_24:\n      callvalue\n      dup1\n      iszero\n      tag_122\n      jumpi\n      0x00\n      dup1\n      revert\n    tag_122:\n      pop\n      sload(0x03)\n      tag_65\n      swap1\n      sub(shl(0xa0, 0x01), 0x01)\n      and\n      dup2\n      jump\n        /* \"Lottery_20230205205541.sol\":4137:4405  function WithdrawCommission() public isOperator {... */\n    tag_51:\n        /* \"Lottery_20230205205541.sol\":1127:1142  lotteryOperator */\n      and(sub(shl(0xa0, 0x01), 0x01), sload(0x01))\n        /* \"Lottery_20230205205541.sol\":1113:1123  msg.sender */\n      caller\n        /* \"Lottery_20230205205541.sol\":1113:1142  msg.sender == lotteryOperator */\n      eq\n        /* \"Lottery_20230205205541.sol\":1090:1205  require(... */\n      tag_128\n      jumpi\n      mload(0x40)\n      shl(0xe5, 0x461bcd)\n      dup2\n      mstore\n        /* \"#utility.yul\":2006:2008   */\n      0x20\n        /* \"Lottery_20230205205541.sol\":1090:1205  require(... */\n      0x04\n      dup3\n      add\n        /* \"#utility.yul\":1988:2009   */\n      mstore\n        /* \"#utility.yul\":2045:2047   */\n      0x22\n        /* \"#utility.yul\":2025:2043   */\n      0x24\n      dup3\n      add\n        /* \"#utility.yul\":2018:2048   */\n      mstore\n        /* \"#utility.yul\":2084:2118   */\n      0x43616c6c6572206973206e6f7420746865206c6f7474657279206f7065726174\n        /* \"#utility.yul\":2064:2082   */\n      0x44\n      dup3\n      add\n        /* \"#utility.yul\":2057:2119   */\n      mstore\n      shl(0xf1, 0x37b9)\n        /* \"#utility.yul\":2135:2153   */\n      0x64\n      dup3\n      add\n        /* \"#utility.yul\":2128:2160   */\n      mstore\n        /* \"#utility.yul\":2177:2196   */\n      0x84\n      add\n        /* \"Lottery_20230205205541.sol\":1090:1205  require(... */\n    tag_129:\n      mload(0x40)\n      dup1\n      swap2\n      sub\n      swap1\n      revert\n    tag_128:\n        /* \"Lottery_20230205205541.sol\":4285:4308  operatorTotalCommission */\n      0x02\n      dup1\n      sload\n        /* \"Lottery_20230205205541.sol\":4196:4220  address payable operator */\n      0x00\n        /* \"Lottery_20230205205541.sol\":4319:4346  operatorTotalCommission = 0 */\n      swap2\n      dup3\n      swap1\n      sstore\n        /* \"Lottery_20230205205541.sol\":4359:4397  operator.transfer(commission2Transfer) */\n      mload(0x40)\n        /* \"Lottery_20230205205541.sol\":4231:4241  msg.sender */\n      caller\n      swap3\n      dup4\n      swap2\n        /* \"Lottery_20230205205541.sol\":4359:4397  operator.transfer(commission2Transfer) */\n      dup4\n      iszero\n      0x08fc\n      mul\n      swap2\n        /* \"Lottery_20230205205541.sol\":4285:4308  operatorTotalCommission */\n      dup5\n      swap2\n        /* \"Lottery_20230205205541.sol\":4359:4397  operator.transfer(commission2Transfer) */\n      swap1\n      dup2\n        /* \"Lottery_20230205205541.sol\":4196:4220  address payable operator */\n      dup2\n        /* \"Lottery_20230205205541.sol\":4359:4397  operator.transfer(commission2Transfer) */\n      dup2\n        /* \"Lottery_20230205205541.sol\":4285:4308  operatorTotalCommission */\n      dup6\n        /* \"Lottery_20230205205541.sol\":4231:4241  msg.sender */\n      dup9\n        /* \"Lottery_20230205205541.sol\":4359:4397  operator.transfer(commission2Transfer) */\n      dup9\n      call\n      swap4\n      pop\n      pop\n      pop\n      pop\n      iszero\n      dup1\n      iszero\n      tag_133\n      jumpi\n      returndatasize\n      0x00\n      dup1\n      returndatacopy\n      revert(0x00, returndatasize)\n    tag_133:\n      pop\n        /* \"Lottery_20230205205541.sol\":4185:4405  {... */\n      pop\n      pop\n        /* \"Lottery_20230205205541.sol\":4137:4405  function WithdrawCommission() public isOperator {... */\n      jump\t// out\n        /* \"Lottery_20230205205541.sol\":2358:3096  function DrawWinnerTicket() public isOperator {... */\n    tag_58:\n        /* \"Lottery_20230205205541.sol\":1127:1142  lotteryOperator */\n      and(sub(shl(0xa0, 0x01), 0x01), sload(0x01))\n        /* \"Lottery_20230205205541.sol\":1113:1123  msg.sender */\n      caller\n        /* \"Lottery_20230205205541.sol\":1113:1142  msg.sender == lotteryOperator */\n      eq\n        /* \"Lottery_20230205205541.sol\":1090:1205  require(... */\n      tag_135\n      jumpi\n      mload(0x40)\n      shl(0xe5, 0x461bcd)\n      dup2\n      mstore\n        /* \"#utility.yul\":2006:2008   */\n      0x20\n        /* \"Lottery_20230205205541.sol\":1090:1205  require(... */\n      0x04\n      dup3\n      add\n        /* \"#utility.yul\":1988:2009   */\n      mstore\n        /* \"#utility.yul\":2045:2047   */\n      0x22\n        /* \"#utility.yul\":2025:2043   */\n      0x24\n      dup3\n      add\n        /* \"#utility.yul\":2018:2048   */\n      mstore\n        /* \"#utility.yul\":2084:2118   */\n      0x43616c6c6572206973206e6f7420746865206c6f7474657279206f7065726174\n        /* \"#utility.yul\":2064:2082   */\n      0x44\n      dup3\n      add\n        /* \"#utility.yul\":2057:2119   */\n      mstore\n      shl(0xf1, 0x37b9)\n        /* \"#utility.yul\":2135:2153   */\n      0x64\n      dup3\n      add\n        /* \"#utility.yul\":2128:2160   */\n      mstore\n        /* \"#utility.yul\":2177:2196   */\n      0x84\n      add\n        /* \"Lottery_20230205205541.sol\":1090:1205  require(... */\n      tag_129\n        /* \"#utility.yul\":1804:2202   */\n      jump\n        /* \"Lottery_20230205205541.sol\":1090:1205  require(... */\n    tag_135:\n        /* \"Lottery_20230205205541.sol\":2423:2430  tickets */\n      0x06\n        /* \"Lottery_20230205205541.sol\":2423:2437  tickets.length */\n      sload\n        /* \"Lottery_20230205205541.sol\":2415:2471  require(tickets.length > 0, \"No tickets were purchased\") */\n      tag_138\n      jumpi\n      mload(0x40)\n      shl(0xe5, 0x461bcd)\n      dup2\n      mstore\n        /* \"#utility.yul\":2409:2411   */\n      0x20\n        /* \"Lottery_20230205205541.sol\":2415:2471  require(tickets.length > 0, \"No tickets were purchased\") */\n      0x04\n      dup3\n      add\n        /* \"#utility.yul\":2391:2412   */\n      mstore\n        /* \"#utility.yul\":2448:2450   */\n      0x19\n        /* \"#utility.yul\":2428:2446   */\n      0x24\n      dup3\n      add\n        /* \"#utility.yul\":2421:2451   */\n      mstore\n        /* \"#utility.yul\":2487:2514   */\n      0x4e6f207469636b65747320776572652070757263686173656400000000000000\n        /* \"#utility.yul\":2467:2485   */\n      0x44\n      dup3\n      add\n        /* \"#utility.yul\":2460:2515   */\n      mstore\n        /* \"#utility.yul\":2532:2550   */\n      0x64\n      add\n        /* \"Lottery_20230205205541.sol\":2415:2471  require(tickets.length > 0, \"No tickets were purchased\") */\n      tag_129\n        /* \"#utility.yul\":2207:2556   */\n      jump\n        /* \"Lottery_20230205205541.sol\":2415:2471  require(tickets.length > 0, \"No tickets were purchased\") */\n    tag_138:\n        /* \"Lottery_20230205205541.sol\":2529:2536  tickets */\n      0x06\n        /* \"Lottery_20230205205541.sol\":2529:2543  tickets.length */\n      sload\n        /* \"Lottery_20230205205541.sol\":2484:2501  bytes32 blockHash */\n      0x00\n      swap1\n        /* \"Lottery_20230205205541.sol\":2514:2543  block.number - tickets.length */\n      tag_141\n      swap1\n        /* \"Lottery_20230205205541.sol\":2514:2526  block.number */\n      number\n        /* \"Lottery_20230205205541.sol\":2514:2543  block.number - tickets.length */\n      tag_142\n      jump\t// in\n    tag_141:\n        /* \"Lottery_20230205205541.sol\":2610:2654  abi.encodePacked(block.timestamp, blockHash) */\n      0x40\n      dup1\n      mload\n        /* \"Lottery_20230205205541.sol\":2627:2642  block.timestamp */\n      timestamp\n        /* \"Lottery_20230205205541.sol\":2610:2654  abi.encodePacked(block.timestamp, blockHash) */\n      0x20\n      dup3\n      add\n        /* \"#utility.yul\":2983:3002   */\n      mstore\n        /* \"Lottery_20230205205541.sol\":2504:2544  blockhash(block.number - tickets.length) */\n      swap2\n      blockhash\n        /* \"#utility.yul\":3018:3030   */\n      swap1\n      dup3\n      add\n        /* \"#utility.yul\":3011:3039   */\n      dup2\n      swap1\n      mstore\n        /* \"Lottery_20230205205541.sol\":2504:2544  blockhash(block.number - tickets.length) */\n      swap2\n      pop\n        /* \"Lottery_20230205205541.sol\":2555:2575  uint256 randomNumber */\n      0x00\n      swap1\n        /* \"#utility.yul\":3055:3067   */\n      0x60\n      add\n        /* \"Lottery_20230205205541.sol\":2610:2654  abi.encodePacked(block.timestamp, blockHash) */\n      0x40\n      dup1\n      mload\n      not(0x1f)\n      dup2\n      dup5\n      sub\n      add\n      dup2\n      mstore\n      swap2\n      swap1\n      mstore\n        /* \"Lottery_20230205205541.sol\":2600:2655  keccak256(abi.encodePacked(block.timestamp, blockHash)) */\n      dup1\n      mload\n        /* \"Lottery_20230205205541.sol\":2610:2654  abi.encodePacked(block.timestamp, blockHash) */\n      0x20\n        /* \"Lottery_20230205205541.sol\":2600:2655  keccak256(abi.encodePacked(block.timestamp, blockHash)) */\n      swap1\n      swap2\n      add\n      keccak256\n        /* \"Lottery_20230205205541.sol\":2716:2723  tickets */\n      0x06\n        /* \"Lottery_20230205205541.sol\":2716:2730  tickets.length */\n      sload\n        /* \"Lottery_20230205205541.sol\":2600:2655  keccak256(abi.encodePacked(block.timestamp, blockHash)) */\n      swap1\n      swap2\n      pop\n        /* \"Lottery_20230205205541.sol\":2578:2666  uint256(... */\n      0x00\n      swap1\n        /* \"Lottery_20230205205541.sol\":2701:2730  randomNumber % tickets.length */\n      tag_145\n      swap1\n        /* \"Lottery_20230205205541.sol\":2600:2655  keccak256(abi.encodePacked(block.timestamp, blockHash)) */\n      dup4\n        /* \"Lottery_20230205205541.sol\":2701:2730  randomNumber % tickets.length */\n      tag_146\n      jump\t// in\n    tag_145:\n        /* \"Lottery_20230205205541.sol\":2677:2730  uint256 winningTicket = randomNumber % tickets.length */\n      swap1\n      pop\n        /* \"Lottery_20230205205541.sol\":2743:2757  address winner */\n      0x00\n        /* \"Lottery_20230205205541.sol\":2760:2767  tickets */\n      0x06\n        /* \"Lottery_20230205205541.sol\":2768:2781  winningTicket */\n      dup3\n        /* \"Lottery_20230205205541.sol\":2760:2782  tickets[winningTicket] */\n      dup2\n      sload\n      dup2\n      lt\n      tag_148\n      jumpi\n      tag_148\n      tag_149\n      jump\t// in\n    tag_148:\n      0x00\n      swap2\n      dup3\n      mstore\n      0x20\n      swap1\n      swap2\n      keccak256\n      add\n      sload\n        /* \"Lottery_20230205205541.sol\":2793:2803  lastWinner */\n      0x03\n        /* \"Lottery_20230205205541.sol\":2793:2812  lastWinner = winner */\n      dup1\n      sload\n      not(0xffffffffffffffffffffffffffffffffffffffff)\n      and\n      sub(shl(0xa0, 0x01), 0x01)\n        /* \"Lottery_20230205205541.sol\":2760:2782  tickets[winningTicket] */\n      swap1\n      swap3\n      and\n        /* \"Lottery_20230205205541.sol\":2793:2812  lastWinner = winner */\n      swap2\n      dup3\n      or\n      swap1\n      sstore\n        /* \"Lottery_20230205205541.sol\":2760:2782  tickets[winningTicket] */\n      swap1\n      pop\n        /* \"Lottery_20230205205541.sol\":2862:2892  ticketPrice - ticketCommission */\n      tag_151\n        /* \"Lottery_20230205205541.sol\":331:343  0.0005 ether */\n      0x01c6bf52634000\n        /* \"Lottery_20230205205541.sol\":189:199  0.01 ether */\n      0x2386f26fc10000\n        /* \"Lottery_20230205205541.sol\":2862:2892  ticketPrice - ticketCommission */\n      tag_142\n      jump\t// in\n    tag_151:\n        /* \"Lottery_20230205205541.sol\":2844:2851  tickets */\n      0x06\n        /* \"Lottery_20230205205541.sol\":2844:2858  tickets.length */\n      sload\n        /* \"Lottery_20230205205541.sol\":2844:2893  tickets.length * (ticketPrice - ticketCommission) */\n      tag_152\n      swap2\n      swap1\n      tag_153\n      jump\t// in\n    tag_152:\n      sub(shl(0xa0, 0x01), 0x01)\n        /* \"Lottery_20230205205541.sol\":2823:2839  winnings[winner] */\n      dup3\n      and\n      0x00\n      swap1\n      dup2\n      mstore\n        /* \"Lottery_20230205205541.sol\":2823:2831  winnings */\n      0x05\n        /* \"Lottery_20230205205541.sol\":2823:2839  winnings[winner] */\n      0x20\n      mstore\n      0x40\n      dup2\n      keccak256\n        /* \"Lottery_20230205205541.sol\":2823:2894  winnings[winner] += (tickets.length * (ticketPrice - ticketCommission)) */\n      dup1\n      sload\n        /* \"Lottery_20230205205541.sol\":2823:2839  winnings[winner] */\n      swap1\n      swap2\n      swap1\n        /* \"Lottery_20230205205541.sol\":2823:2894  winnings[winner] += (tickets.length * (ticketPrice - ticketCommission)) */\n      tag_154\n      swap1\n      dup5\n      swap1\n      tag_155\n      jump\t// in\n    tag_154:\n      swap1\n      swap2\n      sstore\n      pop\n      pop\n      sub(shl(0xa0, 0x01), 0x01)\n        /* \"Lottery_20230205205541.sol\":2924:2940  winnings[winner] */\n      dup2\n      and\n      0x00\n      swap1\n      dup2\n      mstore\n        /* \"Lottery_20230205205541.sol\":2924:2932  winnings */\n      0x05\n        /* \"Lottery_20230205205541.sol\":2924:2940  winnings[winner] */\n      0x20\n      mstore\n      0x40\n      swap1\n      keccak256\n      sload\n        /* \"Lottery_20230205205541.sol\":2905:2921  lastWinnerAmount */\n      0x04\n        /* \"Lottery_20230205205541.sol\":2905:2940  lastWinnerAmount = winnings[winner] */\n      sstore\n        /* \"Lottery_20230205205541.sol\":2979:2986  tickets */\n      0x06\n        /* \"Lottery_20230205205541.sol\":2979:2993  tickets.length */\n      sload\n        /* \"Lottery_20230205205541.sol\":2979:3012  tickets.length * ticketCommission */\n      tag_156\n      swap1\n        /* \"Lottery_20230205205541.sol\":331:343  0.0005 ether */\n      0x01c6bf52634000\n      swap1\n        /* \"Lottery_20230205205541.sol\":2979:3012  tickets.length * ticketCommission */\n      tag_153\n      jump\t// in\n    tag_156:\n        /* \"Lottery_20230205205541.sol\":2951:2974  operatorTotalCommission */\n      0x02\n      0x00\n        /* \"Lottery_20230205205541.sol\":2951:3013  operatorTotalCommission += (tickets.length * ticketCommission) */\n      dup3\n      dup3\n      sload\n      tag_157\n      swap2\n      swap1\n      tag_155\n      jump\t// in\n    tag_157:\n      swap1\n      swap2\n      sstore\n      pop\n        /* \"Lottery_20230205205541.sol\":3024:3038  delete tickets */\n      tag_158\n      swap1\n      pop\n        /* \"Lottery_20230205205541.sol\":3031:3038  tickets */\n      0x06\n      0x00\n        /* \"Lottery_20230205205541.sol\":3024:3038  delete tickets */\n      tag_159\n      jump\t// in\n    tag_158:\n        /* \"Lottery_20230205205541.sol\":3062:3088  block.timestamp + duration */\n      tag_160\n        /* \"Lottery_20230205205541.sol\":409:419  60 minutes */\n      0x0e10\n        /* \"Lottery_20230205205541.sol\":3062:3077  block.timestamp */\n      timestamp\n        /* \"Lottery_20230205205541.sol\":3062:3088  block.timestamp + duration */\n      tag_155\n      jump\t// in\n    tag_160:\n        /* \"Lottery_20230205205541.sol\":3049:3059  expiration */\n      0x00\n        /* \"Lottery_20230205205541.sol\":3049:3088  expiration = block.timestamp + duration */\n      sstore\n      pop\n      pop\n      pop\n      pop\n        /* \"Lottery_20230205205541.sol\":2358:3096  function DrawWinnerTicket() public isOperator {... */\n      jump\t// out\n        /* \"Lottery_20230205205541.sol\":1535:1629  function getTickets() public view returns (address[] memory) {... */\n    tag_61:\n        /* \"Lottery_20230205205541.sol\":1578:1594  address[] memory */\n      0x60\n        /* \"Lottery_20230205205541.sol\":1614:1621  tickets */\n      0x06\n        /* \"Lottery_20230205205541.sol\":1607:1621  return tickets */\n      dup1\n      sload\n      dup1\n      0x20\n      mul\n      0x20\n      add\n      mload(0x40)\n      swap1\n      dup2\n      add\n      0x40\n      mstore\n      dup1\n      swap3\n      swap2\n      swap1\n      dup2\n      dup2\n      mstore\n      0x20\n      add\n      dup3\n      dup1\n      sload\n      dup1\n      iszero\n      tag_162\n      jumpi\n      0x20\n      mul\n      dup3\n      add\n      swap2\n      swap1\n      0x00\n      mstore\n      keccak256(0x00, 0x20)\n      swap1\n    tag_163:\n      dup2\n      sload\n      sub(shl(0xa0, 0x01), 0x01)\n      and\n      dup2\n      mstore\n      0x01\n      swap1\n      swap2\n      add\n      swap1\n      0x20\n      add\n      dup1\n      dup4\n      gt\n      tag_163\n      jumpi\n    tag_162:\n      pop\n      pop\n      pop\n      pop\n      pop\n      swap1\n      pop\n        /* \"Lottery_20230205205541.sol\":1535:1629  function getTickets() public view returns (address[] memory) {... */\n      swap1\n      jump\t// out\n        /* \"Lottery_20230205205541.sol\":935:959  address[] public tickets */\n    tag_68:\n      0x06\n      dup2\n      dup2\n      sload\n      dup2\n      lt\n      tag_164\n      jumpi\n      0x00\n      dup1\n      revert\n    tag_164:\n      0x00\n      swap2\n      dup3\n      mstore\n      0x20\n      swap1\n      swap2\n      keccak256\n      add\n      sload\n      sub(shl(0xa0, 0x01), 0x01)\n      and\n      swap1\n      pop\n      dup2\n      jump\t// out\n        /* \"Lottery_20230205205541.sol\":3541:3779  function WithdrawWinnings() public isWinner {... */\n    tag_81:\n        /* \"Lottery_20230205205541.sol\":4487:4497  msg.sender */\n      caller\n        /* \"Lottery_20230205205541.sol\":4454:4458  bool */\n      0x00\n        /* \"Lottery_20230205205541.sol\":4478:4498  winnings[msg.sender] */\n      swap1\n      dup2\n      mstore\n        /* \"Lottery_20230205205541.sol\":4478:4486  winnings */\n      0x05\n        /* \"Lottery_20230205205541.sol\":4478:4498  winnings[msg.sender] */\n      0x20\n      mstore\n      0x40\n      swap1\n      keccak256\n      sload\n        /* \"Lottery_20230205205541.sol\":1312:1357  require(IsWinner(), \"Caller is not a winner\") */\n      tag_168\n      jumpi\n      mload(0x40)\n      shl(0xe5, 0x461bcd)\n      dup2\n      mstore\n        /* \"#utility.yul\":3964:3966   */\n      0x20\n        /* \"Lottery_20230205205541.sol\":1312:1357  require(IsWinner(), \"Caller is not a winner\") */\n      0x04\n      dup3\n      add\n        /* \"#utility.yul\":3946:3967   */\n      mstore\n        /* \"#utility.yul\":4003:4005   */\n      0x16\n        /* \"#utility.yul\":3983:4001   */\n      0x24\n      dup3\n      add\n        /* \"#utility.yul\":3976:4006   */\n      mstore\n        /* \"#utility.yul\":4042:4066   */\n      0x43616c6c6572206973206e6f7420612077696e6e657200000000000000000000\n        /* \"#utility.yul\":4022:4040   */\n      0x44\n      dup3\n      add\n        /* \"#utility.yul\":4015:4067   */\n      mstore\n        /* \"#utility.yul\":4084:4102   */\n      0x64\n      add\n        /* \"Lottery_20230205205541.sol\":1312:1357  require(IsWinner(), \"Caller is not a winner\") */\n      tag_129\n        /* \"#utility.yul\":3762:4108   */\n      jump\n        /* \"Lottery_20230205205541.sol\":1312:1357  require(IsWinner(), \"Caller is not a winner\") */\n    tag_168:\n        /* \"Lottery_20230205205541.sol\":3629:3639  msg.sender */\n      caller\n        /* \"Lottery_20230205205541.sol\":3596:3618  address payable winner */\n      0x00\n        /* \"Lottery_20230205205541.sol\":3679:3695  winnings[winner] */\n      dup2\n      dup2\n      mstore\n        /* \"Lottery_20230205205541.sol\":3679:3687  winnings */\n      0x05\n        /* \"Lottery_20230205205541.sol\":3679:3695  winnings[winner] */\n      0x20\n      mstore\n      0x40\n      dup1\n      dup3\n      keccak256\n      dup1\n      sload\n        /* \"Lottery_20230205205541.sol\":3706:3726  winnings[winner] = 0 */\n      swap1\n      dup4\n      swap1\n      sstore\n        /* \"Lottery_20230205205541.sol\":3739:3771  winner.transfer(reward2Transfer) */\n      swap1\n      mload\n        /* \"Lottery_20230205205541.sol\":3679:3695  winnings[winner] */\n      swap1\n      swap2\n        /* \"Lottery_20230205205541.sol\":3629:3639  msg.sender */\n      dup4\n      swap2\n        /* \"Lottery_20230205205541.sol\":3739:3771  winner.transfer(reward2Transfer) */\n      dup4\n      iszero\n      0x08fc\n      mul\n      swap2\n        /* \"Lottery_20230205205541.sol\":3679:3695  winnings[winner] */\n      dup5\n      swap2\n        /* \"Lottery_20230205205541.sol\":3739:3771  winner.transfer(reward2Transfer) */\n      swap1\n      dup2\n        /* \"Lottery_20230205205541.sol\":3596:3618  address payable winner */\n      dup2\n        /* \"Lottery_20230205205541.sol\":3739:3771  winner.transfer(reward2Transfer) */\n      dup2\n        /* \"Lottery_20230205205541.sol\":3679:3695  winnings[winner] */\n      dup6\n        /* \"Lottery_20230205205541.sol\":3629:3639  msg.sender */\n      dup9\n        /* \"Lottery_20230205205541.sol\":3739:3771  winner.transfer(reward2Transfer) */\n      dup9\n      call\n      swap4\n      pop\n      pop\n      pop\n      pop\n      iszero\n      dup1\n      iszero\n      tag_133\n      jumpi\n      returndatasize\n      0x00\n      dup1\n      returndatacopy\n      revert(0x00, returndatasize)\n        /* \"Lottery_20230205205541.sol\":1760:2350  function BuyTickets() public payable {... */\n    tag_83:\n        /* \"Lottery_20230205205541.sol\":1830:1853  msg.value % ticketPrice */\n      tag_175\n        /* \"Lottery_20230205205541.sol\":189:199  0.01 ether */\n      0x2386f26fc10000\n        /* \"Lottery_20230205205541.sol\":1830:1839  msg.value */\n      callvalue\n        /* \"Lottery_20230205205541.sol\":1830:1853  msg.value % ticketPrice */\n      tag_146\n      jump\t// in\n    tag_175:\n        /* \"Lottery_20230205205541.sol\":1830:1858  msg.value % ticketPrice == 0 */\n      iszero\n        /* \"Lottery_20230205205541.sol\":1956:1985  Strings.toString(ticketPrice) */\n      tag_176\n        /* \"Lottery_20230205205541.sol\":189:199  0.01 ether */\n      0x2386f26fc10000\n        /* \"Lottery_20230205205541.sol\":1956:1972  Strings.toString */\n      tag_177\n        /* \"Lottery_20230205205541.sol\":1956:1985  Strings.toString(ticketPrice) */\n      jump\t// in\n    tag_176:\n        /* \"Lottery_20230205205541.sol\":1873:2027  string.concat(... */\n      add(0x20, mload(0x40))\n      tag_178\n      swap2\n      swap1\n      tag_179\n      jump\t// in\n    tag_178:\n      mload(0x40)\n      0x20\n      dup2\n      dup4\n      sub\n      sub\n      dup2\n      mstore\n      swap1\n      0x40\n      mstore\n        /* \"Lottery_20230205205541.sol\":1808:2038  require(... */\n      swap1\n      tag_180\n      jumpi\n      mload(0x40)\n      shl(0xe5, 0x461bcd)\n      dup2\n      mstore\n      0x04\n      add\n      tag_129\n      swap2\n      swap1\n      tag_182\n      jump\t// in\n    tag_180:\n      pop\n        /* \"Lottery_20230205205541.sol\":2049:2074  uint256 numOfTicketsToBuy */\n      0x00\n        /* \"Lottery_20230205205541.sol\":2077:2100  msg.value / ticketPrice */\n      tag_183\n        /* \"Lottery_20230205205541.sol\":189:199  0.01 ether */\n      0x2386f26fc10000\n        /* \"Lottery_20230205205541.sol\":2077:2086  msg.value */\n      callvalue\n        /* \"Lottery_20230205205541.sol\":2077:2100  msg.value / ticketPrice */\n      tag_184\n      jump\t// in\n    tag_183:\n        /* \"Lottery_20230205205541.sol\":2049:2100  uint256 numOfTicketsToBuy = msg.value / ticketPrice */\n      swap1\n      pop\n        /* \"Lottery_20230205205541.sol\":2156:2174  RemainingTickets() */\n      tag_185\n        /* \"Lottery_20230205205541.sol\":2156:2172  RemainingTickets */\n      tag_86\n        /* \"Lottery_20230205205541.sol\":2156:2174  RemainingTickets() */\n      jump\t// in\n    tag_185:\n        /* \"Lottery_20230205205541.sol\":2135:2152  numOfTicketsToBuy */\n      dup2\n        /* \"Lottery_20230205205541.sol\":2135:2174  numOfTicketsToBuy <= RemainingTickets() */\n      gt\n      iszero\n        /* \"Lottery_20230205205541.sol\":2113:2231  require(... */\n      tag_186\n      jumpi\n      mload(0x40)\n      shl(0xe5, 0x461bcd)\n      dup2\n      mstore\n        /* \"#utility.yul\":5702:5704   */\n      0x20\n        /* \"Lottery_20230205205541.sol\":2113:2231  require(... */\n      0x04\n      dup3\n      add\n        /* \"#utility.yul\":5684:5705   */\n      mstore\n        /* \"#utility.yul\":5741:5743   */\n      0x1d\n        /* \"#utility.yul\":5721:5739   */\n      0x24\n      dup3\n      add\n        /* \"#utility.yul\":5714:5744   */\n      mstore\n        /* \"#utility.yul\":5780:5811   */\n      0x4e6f7420656e6f756768207469636b65747320617661696c61626c652e000000\n        /* \"#utility.yul\":5760:5778   */\n      0x44\n      dup3\n      add\n        /* \"#utility.yul\":5753:5812   */\n      mstore\n        /* \"#utility.yul\":5829:5847   */\n      0x64\n      add\n        /* \"Lottery_20230205205541.sol\":2113:2231  require(... */\n      tag_129\n        /* \"#utility.yul\":5500:5853   */\n      jump\n        /* \"Lottery_20230205205541.sol\":2113:2231  require(... */\n    tag_186:\n        /* \"Lottery_20230205205541.sol\":2249:2258  uint256 i */\n      0x00\n        /* \"Lottery_20230205205541.sol\":2244:2343  for (uint256 i = 0; i < numOfTicketsToBuy; i++) {... */\n    tag_189:\n        /* \"Lottery_20230205205541.sol\":2268:2285  numOfTicketsToBuy */\n      dup2\n        /* \"Lottery_20230205205541.sol\":2264:2265  i */\n      dup2\n        /* \"Lottery_20230205205541.sol\":2264:2285  i < numOfTicketsToBuy */\n      lt\n        /* \"Lottery_20230205205541.sol\":2244:2343  for (uint256 i = 0; i < numOfTicketsToBuy; i++) {... */\n      iszero\n      tag_190\n      jumpi\n        /* \"Lottery_20230205205541.sol\":2307:2314  tickets */\n      0x06\n        /* \"Lottery_20230205205541.sol\":2307:2331  tickets.push(msg.sender) */\n      dup1\n      sload\n      0x01\n      dup2\n      add\n      dup3\n      sstore\n      0x00\n      swap2\n      swap1\n      swap2\n      mstore\n      0xf652222313e28459528d920b65115c16c04f3efc82aaedc97be59f3f377c0d3f\n      add\n      dup1\n      sload\n      not(0xffffffffffffffffffffffffffffffffffffffff)\n      and\n        /* \"Lottery_20230205205541.sol\":2320:2330  msg.sender */\n      caller\n        /* \"Lottery_20230205205541.sol\":2307:2331  tickets.push(msg.sender) */\n      or\n      swap1\n      sstore\n        /* \"Lottery_20230205205541.sol\":2287:2290  i++ */\n      dup1\n      tag_193\n      dup2\n      tag_194\n      jump\t// in\n    tag_193:\n      swap2\n      pop\n      pop\n        /* \"Lottery_20230205205541.sol\":2244:2343  for (uint256 i = 0; i < numOfTicketsToBuy; i++) {... */\n      jump(tag_189)\n    tag_190:\n      pop\n        /* \"Lottery_20230205205541.sol\":1797:2350  {... */\n      pop\n        /* \"Lottery_20230205205541.sol\":1760:2350  function BuyTickets() public payable {... */\n      jump\t// out\n        /* \"Lottery_20230205205541.sol\":4642:4753  function RemainingTickets() public view returns (uint256) {... */\n    tag_86:\n        /* \"Lottery_20230205205541.sol\":4731:4738  tickets */\n      0x06\n        /* \"Lottery_20230205205541.sol\":4731:4745  tickets.length */\n      sload\n        /* \"Lottery_20230205205541.sol\":4691:4698  uint256 */\n      0x00\n      swap1\n        /* \"Lottery_20230205205541.sol\":4718:4745  maxTickets - tickets.length */\n      tag_196\n      swap1\n        /* \"Lottery_20230205205541.sol\":243:250  1000000 */\n      0x0f4240\n        /* \"Lottery_20230205205541.sol\":4718:4745  maxTickets - tickets.length */\n      tag_142\n      jump\t// in\n    tag_196:\n        /* \"Lottery_20230205205541.sol\":4711:4745  return maxTickets - tickets.length */\n      swap1\n      pop\n        /* \"Lottery_20230205205541.sol\":4642:4753  function RemainingTickets() public view returns (uint256) {... */\n      swap1\n      jump\t// out\n        /* \"Lottery_20230205205541.sol\":3787:4129  function RefundAll() public {... */\n    tag_99:\n        /* \"Lottery_20230205205541.sol\":3853:3863  expiration */\n      sload(0x00)\n        /* \"Lottery_20230205205541.sol\":3834:3849  block.timestamp */\n      timestamp\n        /* \"Lottery_20230205205541.sol\":3834:3863  block.timestamp >= expiration */\n      lt\n      iszero\n        /* \"Lottery_20230205205541.sol\":3826:3895  require(block.timestamp >= expiration, \"the lottery not expired yet\") */\n      tag_199\n      jumpi\n      mload(0x40)\n      shl(0xe5, 0x461bcd)\n      dup2\n      mstore\n        /* \"#utility.yul\":6200:6202   */\n      0x20\n        /* \"Lottery_20230205205541.sol\":3826:3895  require(block.timestamp >= expiration, \"the lottery not expired yet\") */\n      0x04\n      dup3\n      add\n        /* \"#utility.yul\":6182:6203   */\n      mstore\n        /* \"#utility.yul\":6239:6241   */\n      0x1b\n        /* \"#utility.yul\":6219:6237   */\n      0x24\n      dup3\n      add\n        /* \"#utility.yul\":6212:6242   */\n      mstore\n        /* \"#utility.yul\":6278:6307   */\n      0x746865206c6f7474657279206e6f742065787069726564207965740000000000\n        /* \"#utility.yul\":6258:6276   */\n      0x44\n      dup3\n      add\n        /* \"#utility.yul\":6251:6308   */\n      mstore\n        /* \"#utility.yul\":6325:6343   */\n      0x64\n      add\n        /* \"Lottery_20230205205541.sol\":3826:3895  require(block.timestamp >= expiration, \"the lottery not expired yet\") */\n      tag_129\n        /* \"#utility.yul\":5998:6349   */\n      jump\n        /* \"Lottery_20230205205541.sol\":3826:3895  require(block.timestamp >= expiration, \"the lottery not expired yet\") */\n    tag_199:\n        /* \"Lottery_20230205205541.sol\":3913:3922  uint256 i */\n      0x00\n        /* \"Lottery_20230205205541.sol\":3908:4097  for (uint256 i = 0; i < tickets.length; i++) {... */\n    tag_202:\n        /* \"Lottery_20230205205541.sol\":3932:3939  tickets */\n      0x06\n        /* \"Lottery_20230205205541.sol\":3932:3946  tickets.length */\n      sload\n        /* \"Lottery_20230205205541.sol\":3928:3946  i < tickets.length */\n      dup2\n      lt\n        /* \"Lottery_20230205205541.sol\":3908:4097  for (uint256 i = 0; i < tickets.length; i++) {... */\n      iszero\n      tag_203\n      jumpi\n        /* \"Lottery_20230205205541.sol\":3968:3986  address payable to */\n      0x00\n        /* \"Lottery_20230205205541.sol\":3997:4004  tickets */\n      0x06\n        /* \"Lottery_20230205205541.sol\":4005:4006  i */\n      dup3\n        /* \"Lottery_20230205205541.sol\":3997:4007  tickets[i] */\n      dup2\n      sload\n      dup2\n      lt\n      tag_206\n      jumpi\n      tag_206\n      tag_149\n      jump\t// in\n    tag_206:\n      0x00\n      swap2\n      dup3\n      mstore\n      0x20\n      dup3\n      keccak256\n      add\n      sload\n        /* \"Lottery_20230205205541.sol\":4023:4030  tickets */\n      0x06\n        /* \"Lottery_20230205205541.sol\":4023:4033  tickets[i] */\n      dup1\n      sload\n      sub(shl(0xa0, 0x01), 0x01)\n        /* \"Lottery_20230205205541.sol\":3997:4007  tickets[i] */\n      swap1\n      swap3\n      and\n      swap4\n      pop\n        /* \"Lottery_20230205205541.sol\":4023:4030  tickets */\n      swap1\n        /* \"Lottery_20230205205541.sol\":4031:4032  i */\n      dup5\n      swap1\n        /* \"Lottery_20230205205541.sol\":4023:4033  tickets[i] */\n      dup2\n      lt\n      tag_209\n      jumpi\n      tag_209\n      tag_149\n      jump\t// in\n    tag_209:\n      0x00\n      swap2\n      dup3\n      mstore\n      0x20\n      dup3\n      keccak256\n      add\n        /* \"Lottery_20230205205541.sol\":4023:4046  tickets[i] = address(0) */\n      dup1\n      sload\n      not(0xffffffffffffffffffffffffffffffffffffffff)\n      and\n      sub(shl(0xa0, 0x01), 0x01)\n      swap4\n      dup5\n      and\n      or\n      swap1\n      sstore\n        /* \"Lottery_20230205205541.sol\":4061:4085  to.transfer(ticketPrice) */\n      mload(0x40)\n        /* \"Lottery_20230205205541.sol\":4061:4072  to.transfer */\n      swap2\n      dup4\n      and\n      swap2\n        /* \"Lottery_20230205205541.sol\":189:199  0.01 ether */\n      0x2386f26fc10000\n      swap1\n        /* \"Lottery_20230205205541.sol\":4023:4033  tickets[i] */\n      dup3\n        /* \"Lottery_20230205205541.sol\":4061:4085  to.transfer(ticketPrice) */\n      dup2\n        /* \"Lottery_20230205205541.sol\":4023:4033  tickets[i] */\n      dup2\n        /* \"Lottery_20230205205541.sol\":4061:4085  to.transfer(ticketPrice) */\n      dup2\n        /* \"Lottery_20230205205541.sol\":189:199  0.01 ether */\n      dup6\n        /* \"Lottery_20230205205541.sol\":4061:4072  to.transfer */\n      dup9\n        /* \"Lottery_20230205205541.sol\":4023:4033  tickets[i] */\n      dup4\n        /* \"Lottery_20230205205541.sol\":4061:4085  to.transfer(ticketPrice) */\n      call\n      swap4\n      pop\n      pop\n      pop\n      pop\n      iszero\n      dup1\n      iszero\n      tag_212\n      jumpi\n      returndatasize\n      0x00\n      dup1\n      returndatacopy\n      revert(0x00, returndatasize)\n    tag_212:\n      pop\n        /* \"Lottery_20230205205541.sol\":3953:4097  {... */\n      pop\n        /* \"Lottery_20230205205541.sol\":3948:3951  i++ */\n      dup1\n      dup1\n      tag_213\n      swap1\n      tag_194\n      jump\t// in\n    tag_213:\n      swap2\n      pop\n      pop\n        /* \"Lottery_20230205205541.sol\":3908:4097  for (uint256 i = 0; i < tickets.length; i++) {... */\n      jump(tag_202)\n    tag_203:\n      pop\n        /* \"Lottery_20230205205541.sol\":4107:4121  delete tickets */\n      tag_214\n        /* \"Lottery_20230205205541.sol\":4114:4121  tickets */\n      0x06\n      0x00\n        /* \"Lottery_20230205205541.sol\":4107:4121  delete tickets */\n      tag_159\n      jump\t// in\n    tag_214:\n        /* \"Lottery_20230205205541.sol\":3787:4129  function RefundAll() public {... */\n      jump\t// out\n        /* \"Lottery_20230205205541.sol\":4518:4634  function CurrentWinningReward() public view returns (uint256) {... */\n    tag_106:\n        /* \"Lottery_20230205205541.sol\":4598:4605  tickets */\n      0x06\n        /* \"Lottery_20230205205541.sol\":4598:4612  tickets.length */\n      sload\n        /* \"Lottery_20230205205541.sol\":4571:4578  uint256 */\n      0x00\n      swap1\n        /* \"Lottery_20230205205541.sol\":4598:4626  tickets.length * ticketPrice */\n      tag_196\n      swap1\n        /* \"Lottery_20230205205541.sol\":189:199  0.01 ether */\n      0x2386f26fc10000\n      swap1\n        /* \"Lottery_20230205205541.sol\":4598:4626  tickets.length * ticketPrice */\n      tag_153\n      jump\t// in\n        /* \"Lottery_20230205205541.sol\":3104:3311  function restartDraw() public isOperator {... */\n    tag_121:\n        /* \"Lottery_20230205205541.sol\":1127:1142  lotteryOperator */\n      and(sub(shl(0xa0, 0x01), 0x01), sload(0x01))\n        /* \"Lottery_20230205205541.sol\":1113:1123  msg.sender */\n      caller\n        /* \"Lottery_20230205205541.sol\":1113:1142  msg.sender == lotteryOperator */\n      eq\n        /* \"Lottery_20230205205541.sol\":1090:1205  require(... */\n      tag_219\n      jumpi\n      mload(0x40)\n      shl(0xe5, 0x461bcd)\n      dup2\n      mstore\n        /* \"#utility.yul\":2006:2008   */\n      0x20\n        /* \"Lottery_20230205205541.sol\":1090:1205  require(... */\n      0x04\n      dup3\n      add\n        /* \"#utility.yul\":1988:2009   */\n      mstore\n        /* \"#utility.yul\":2045:2047   */\n      0x22\n        /* \"#utility.yul\":2025:2043   */\n      0x24\n      dup3\n      add\n        /* \"#utility.yul\":2018:2048   */\n      mstore\n        /* \"#utility.yul\":2084:2118   */\n      0x43616c6c6572206973206e6f7420746865206c6f7474657279206f7065726174\n        /* \"#utility.yul\":2064:2082   */\n      0x44\n      dup3\n      add\n        /* \"#utility.yul\":2057:2119   */\n      mstore\n      shl(0xf1, 0x37b9)\n        /* \"#utility.yul\":2135:2153   */\n      0x64\n      dup3\n      add\n        /* \"#utility.yul\":2128:2160   */\n      mstore\n        /* \"#utility.yul\":2177:2196   */\n      0x84\n      add\n        /* \"Lottery_20230205205541.sol\":1090:1205  require(... */\n      tag_129\n        /* \"#utility.yul\":1804:2202   */\n      jump\n        /* \"Lottery_20230205205541.sol\":1090:1205  require(... */\n    tag_219:\n        /* \"Lottery_20230205205541.sol\":3164:3171  tickets */\n      0x06\n        /* \"Lottery_20230205205541.sol\":3164:3178  tickets.length */\n      sload\n        /* \"Lottery_20230205205541.sol\":3164:3183  tickets.length == 0 */\n      iszero\n        /* \"Lottery_20230205205541.sol\":3156:3226  require(tickets.length == 0, \"Cannot Restart Draw as Draw is in play\") */\n      tag_222\n      jumpi\n      mload(0x40)\n      shl(0xe5, 0x461bcd)\n      dup2\n      mstore\n        /* \"#utility.yul\":6556:6558   */\n      0x20\n        /* \"Lottery_20230205205541.sol\":3156:3226  require(tickets.length == 0, \"Cannot Restart Draw as Draw is in play\") */\n      0x04\n      dup3\n      add\n        /* \"#utility.yul\":6538:6559   */\n      mstore\n        /* \"#utility.yul\":6595:6597   */\n      0x26\n        /* \"#utility.yul\":6575:6593   */\n      0x24\n      dup3\n      add\n        /* \"#utility.yul\":6568:6598   */\n      mstore\n        /* \"#utility.yul\":6634:6668   */\n      0x43616e6e6f742052657374617274204472617720617320447261772069732069\n        /* \"#utility.yul\":6614:6632   */\n      0x44\n      dup3\n      add\n        /* \"#utility.yul\":6607:6669   */\n      mstore\n        /* \"#utility.yul\":6705:6713   */\n      0x6e20706c61790000000000000000000000000000000000000000000000000000\n        /* \"#utility.yul\":6685:6703   */\n      0x64\n      dup3\n      add\n        /* \"#utility.yul\":6678:6714   */\n      mstore\n        /* \"#utility.yul\":6731:6750   */\n      0x84\n      add\n        /* \"Lottery_20230205205541.sol\":3156:3226  require(tickets.length == 0, \"Cannot Restart Draw as Draw is in play\") */\n      tag_129\n        /* \"#utility.yul\":6354:6756   */\n      jump\n        /* \"Lottery_20230205205541.sol\":3156:3226  require(tickets.length == 0, \"Cannot Restart Draw as Draw is in play\") */\n    tag_222:\n        /* \"Lottery_20230205205541.sol\":3239:3253  delete tickets */\n      tag_225\n        /* \"Lottery_20230205205541.sol\":3246:3253  tickets */\n      0x06\n      0x00\n        /* \"Lottery_20230205205541.sol\":3239:3253  delete tickets */\n      tag_159\n      jump\t// in\n    tag_225:\n        /* \"Lottery_20230205205541.sol\":3277:3303  block.timestamp + duration */\n      tag_226\n        /* \"Lottery_20230205205541.sol\":409:419  60 minutes */\n      0x0e10\n        /* \"Lottery_20230205205541.sol\":3277:3292  block.timestamp */\n      timestamp\n        /* \"Lottery_20230205205541.sol\":3277:3303  block.timestamp + duration */\n      tag_155\n      jump\t// in\n    tag_226:\n        /* \"Lottery_20230205205541.sol\":3264:3274  expiration */\n      0x00\n        /* \"Lottery_20230205205541.sol\":3264:3303  expiration = block.timestamp + duration */\n      sstore\n        /* \"Lottery_20230205205541.sol\":3104:3311  function restartDraw() public isOperator {... */\n      jump\t// out\n        /* \"@openzeppelin/contracts/utils/Strings.sol\":392:1095   */\n    tag_177:\n        /* \"@openzeppelin/contracts/utils/Strings.sol\":448:461   */\n      0x60\n        /* \"@openzeppelin/contracts/utils/Strings.sol\":665:670   */\n      dup2\n        /* \"@openzeppelin/contracts/utils/Strings.sol\":674:675   */\n      0x00\n        /* \"@openzeppelin/contracts/utils/Strings.sol\":665:675   */\n      sub\n        /* \"@openzeppelin/contracts/utils/Strings.sol\":661:712   */\n      tag_228\n      jumpi\n      pop\n      pop\n        /* \"@openzeppelin/contracts/utils/Strings.sol\":691:701   */\n      0x40\n      dup1\n      mload\n      dup1\n      dup3\n      add\n      swap1\n      swap2\n      mstore\n      0x01\n      dup2\n      mstore\n      shl(0xfc, 0x03)\n      0x20\n      dup3\n      add\n      mstore\n      swap1\n        /* \"@openzeppelin/contracts/utils/Strings.sol\":392:1095   */\n      jump\t// out\n        /* \"@openzeppelin/contracts/utils/Strings.sol\":661:712   */\n    tag_228:\n        /* \"@openzeppelin/contracts/utils/Strings.sol\":736:741   */\n      dup2\n        /* \"@openzeppelin/contracts/utils/Strings.sol\":721:733   */\n      0x00\n        /* \"@openzeppelin/contracts/utils/Strings.sol\":775:850   */\n    tag_229:\n        /* \"@openzeppelin/contracts/utils/Strings.sol\":782:791   */\n      dup2\n      iszero\n        /* \"@openzeppelin/contracts/utils/Strings.sol\":775:850   */\n      tag_230\n      jumpi\n        /* \"@openzeppelin/contracts/utils/Strings.sol\":807:815   */\n      dup1\n      tag_231\n      dup2\n      tag_194\n      jump\t// in\n    tag_231:\n      swap2\n      pop\n        /* \"@openzeppelin/contracts/utils/Strings.sol\":829:839   */\n      tag_232\n      swap1\n      pop\n        /* \"@openzeppelin/contracts/utils/Strings.sol\":837:839   */\n      0x0a\n        /* \"@openzeppelin/contracts/utils/Strings.sol\":829:839   */\n      dup4\n      tag_184\n      jump\t// in\n    tag_232:\n      swap2\n      pop\n        /* \"@openzeppelin/contracts/utils/Strings.sol\":775:850   */\n      jump(tag_229)\n    tag_230:\n        /* \"@openzeppelin/contracts/utils/Strings.sol\":859:878   */\n      0x00\n        /* \"@openzeppelin/contracts/utils/Strings.sol\":891:897   */\n      dup2\n        /* \"@openzeppelin/contracts/utils/Strings.sol\":881:898   */\n      0xffffffffffffffff\n      dup2\n      gt\n      iszero\n      tag_234\n      jumpi\n      tag_234\n      tag_235\n      jump\t// in\n    tag_234:\n      mload(0x40)\n      swap1\n      dup1\n      dup3\n      mstore\n      dup1\n      0x1f\n      add\n      not(0x1f)\n      and\n      0x20\n      add\n      dup3\n      add\n      0x40\n      mstore\n      dup1\n      iszero\n      tag_236\n      jumpi\n      0x20\n      dup3\n      add\n      dup2\n      dup1\n      calldatasize\n      dup4\n      calldatacopy\n      add\n      swap1\n      pop\n    tag_236:\n      pop\n        /* \"@openzeppelin/contracts/utils/Strings.sol\":859:898   */\n      swap1\n      pop\n        /* \"@openzeppelin/contracts/utils/Strings.sol\":908:1058   */\n    tag_237:\n        /* \"@openzeppelin/contracts/utils/Strings.sol\":915:925   */\n      dup5\n      iszero\n        /* \"@openzeppelin/contracts/utils/Strings.sol\":908:1058   */\n      tag_238\n      jumpi\n        /* \"@openzeppelin/contracts/utils/Strings.sol\":941:952   */\n      tag_239\n        /* \"@openzeppelin/contracts/utils/Strings.sol\":951:952   */\n      0x01\n        /* \"@openzeppelin/contracts/utils/Strings.sol\":941:952   */\n      dup4\n      tag_142\n      jump\t// in\n    tag_239:\n      swap2\n      pop\n        /* \"@openzeppelin/contracts/utils/Strings.sol\":1009:1019   */\n      tag_240\n        /* \"@openzeppelin/contracts/utils/Strings.sol\":1017:1019   */\n      0x0a\n        /* \"@openzeppelin/contracts/utils/Strings.sol\":1009:1014   */\n      dup7\n        /* \"@openzeppelin/contracts/utils/Strings.sol\":1009:1019   */\n      tag_146\n      jump\t// in\n    tag_240:\n        /* \"@openzeppelin/contracts/utils/Strings.sol\":996:1020   */\n      tag_241\n      swap1\n        /* \"@openzeppelin/contracts/utils/Strings.sol\":996:998   */\n      0x30\n        /* \"@openzeppelin/contracts/utils/Strings.sol\":996:1020   */\n      tag_155\n      jump\t// in\n    tag_241:\n        /* \"@openzeppelin/contracts/utils/Strings.sol\":983:1022   */\n      0xf8\n      shl\n        /* \"@openzeppelin/contracts/utils/Strings.sol\":966:972   */\n      dup2\n        /* \"@openzeppelin/contracts/utils/Strings.sol\":973:979   */\n      dup4\n        /* \"@openzeppelin/contracts/utils/Strings.sol\":966:980   */\n      dup2\n      mload\n      dup2\n      lt\n      tag_243\n      jumpi\n      tag_243\n      tag_149\n      jump\t// in\n    tag_243:\n      0x20\n      add\n      add\n        /* \"@openzeppelin/contracts/utils/Strings.sol\":966:1022   */\n      swap1\n      not(0xffffffffffffffffffffffffffffffffffffffffffffffffffffffffffffff)\n      and\n      swap1\n      dup2\n      0x00\n      byte\n      swap1\n      mstore8\n      pop\n        /* \"@openzeppelin/contracts/utils/Strings.sol\":1036:1047   */\n      tag_244\n        /* \"@openzeppelin/contracts/utils/Strings.sol\":1045:1047   */\n      0x0a\n        /* \"@openzeppelin/contracts/utils/Strings.sol\":1036:1047   */\n      dup7\n      tag_184\n      jump\t// in\n    tag_244:\n      swap5\n      pop\n        /* \"@openzeppelin/contracts/utils/Strings.sol\":908:1058   */\n      jump(tag_237)\n    tag_238:\n        /* \"@openzeppelin/contracts/utils/Strings.sol\":1081:1087   */\n      swap5\n        /* \"@openzeppelin/contracts/utils/Strings.sol\":392:1095   */\n      swap4\n      pop\n      pop\n      pop\n      pop\n      jump\t// out\n    tag_159:\n      pop\n      dup1\n      sload\n      0x00\n      dup3\n      sstore\n      swap1\n      0x00\n      mstore\n      keccak256(0x00, 0x20)\n      swap1\n      dup2\n      add\n      swap1\n      tag_246\n      swap2\n      swap1\n      tag_247\n      jump\t// in\n    tag_246:\n      pop\n      jump\t// out\n    tag_247:\n    tag_248:\n      dup1\n      dup3\n      gt\n      iszero\n      tag_249\n      jumpi\n      0x00\n      dup2\n      sstore\n      0x01\n      add\n      jump(tag_248)\n    tag_249:\n      pop\n      swap1\n      jump\t// out\n        /* \"#utility.yul\":196:877   */\n    tag_63:\n        /* \"#utility.yul\":367:369   */\n      0x20\n        /* \"#utility.yul\":419:440   */\n      dup1\n      dup3\n      mstore\n        /* \"#utility.yul\":489:502   */\n      dup3\n      mload\n        /* \"#utility.yul\":392:410   */\n      dup3\n      dup3\n      add\n        /* \"#utility.yul\":511:533   */\n      dup2\n      swap1\n      mstore\n        /* \"#utility.yul\":338:342   */\n      0x00\n      swap2\n        /* \"#utility.yul\":367:369   */\n      swap1\n        /* \"#utility.yul\":590:605   */\n      dup5\n      dup3\n      add\n      swap1\n        /* \"#utility.yul\":564:566   */\n      0x40\n        /* \"#utility.yul\":549:567   */\n      dup6\n      add\n      swap1\n        /* \"#utility.yul\":338:342   */\n      dup5\n        /* \"#utility.yul\":633:851   */\n    tag_256:\n        /* \"#utility.yul\":647:653   */\n      dup2\n        /* \"#utility.yul\":644:645   */\n      dup2\n        /* \"#utility.yul\":641:654   */\n      lt\n        /* \"#utility.yul\":633:851   */\n      iszero\n      tag_258\n      jumpi\n        /* \"#utility.yul\":712:725   */\n      dup4\n      mload\n      sub(shl(0xa0, 0x01), 0x01)\n        /* \"#utility.yul\":708:770   */\n      and\n        /* \"#utility.yul\":696:771   */\n      dup4\n      mstore\n        /* \"#utility.yul\":826:841   */\n      swap3\n      dup5\n      add\n      swap3\n        /* \"#utility.yul\":791:803   */\n      swap2\n      dup5\n      add\n      swap2\n        /* \"#utility.yul\":669:670   */\n      0x01\n        /* \"#utility.yul\":662:671   */\n      add\n        /* \"#utility.yul\":633:851   */\n      jump(tag_256)\n    tag_258:\n      pop\n        /* \"#utility.yul\":868:871   */\n      swap1\n      swap7\n        /* \"#utility.yul\":196:877   */\n      swap6\n      pop\n      pop\n      pop\n      pop\n      pop\n      pop\n      jump\t// out\n        /* \"#utility.yul\":882:1062   */\n    tag_67:\n        /* \"#utility.yul\":941:947   */\n      0x00\n        /* \"#utility.yul\":994:996   */\n      0x20\n        /* \"#utility.yul\":982:991   */\n      dup3\n        /* \"#utility.yul\":973:980   */\n      dup5\n        /* \"#utility.yul\":969:992   */\n      sub\n        /* \"#utility.yul\":965:997   */\n      slt\n        /* \"#utility.yul\":962:1014   */\n      iszero\n      tag_260\n      jumpi\n        /* \"#utility.yul\":1010:1011   */\n      0x00\n        /* \"#utility.yul\":1007:1008   */\n      dup1\n        /* \"#utility.yul\":1000:1012   */\n      revert\n        /* \"#utility.yul\":962:1014   */\n    tag_260:\n      pop\n        /* \"#utility.yul\":1033:1056   */\n      calldataload\n      swap2\n        /* \"#utility.yul\":882:1062   */\n      swap1\n      pop\n      jump\t// out\n        /* \"#utility.yul\":1490:1799   */\n    tag_111:\n        /* \"#utility.yul\":1549:1555   */\n      0x00\n        /* \"#utility.yul\":1602:1604   */\n      0x20\n        /* \"#utility.yul\":1590:1599   */\n      dup3\n        /* \"#utility.yul\":1581:1588   */\n      dup5\n        /* \"#utility.yul\":1577:1600   */\n      sub\n        /* \"#utility.yul\":1573:1605   */\n      slt\n        /* \"#utility.yul\":1570:1622   */\n      iszero\n      tag_264\n      jumpi\n        /* \"#utility.yul\":1618:1619   */\n      0x00\n        /* \"#utility.yul\":1615:1616   */\n      dup1\n        /* \"#utility.yul\":1608:1620   */\n      revert\n        /* \"#utility.yul\":1570:1622   */\n    tag_264:\n        /* \"#utility.yul\":1657:1666   */\n      dup2\n        /* \"#utility.yul\":1644:1667   */\n      calldataload\n      sub(shl(0xa0, 0x01), 0x01)\n        /* \"#utility.yul\":1700:1705   */\n      dup2\n        /* \"#utility.yul\":1696:1750   */\n      and\n        /* \"#utility.yul\":1689:1694   */\n      dup2\n        /* \"#utility.yul\":1686:1751   */\n      eq\n        /* \"#utility.yul\":1676:1769   */\n      tag_265\n      jumpi\n        /* \"#utility.yul\":1765:1766   */\n      0x00\n        /* \"#utility.yul\":1762:1763   */\n      dup1\n        /* \"#utility.yul\":1755:1767   */\n      revert\n        /* \"#utility.yul\":1676:1769   */\n    tag_265:\n        /* \"#utility.yul\":1788:1793   */\n      swap4\n        /* \"#utility.yul\":1490:1799   */\n      swap3\n      pop\n      pop\n      pop\n      jump\t// out\n        /* \"#utility.yul\":2561:2688   */\n    tag_250:\n        /* \"#utility.yul\":2622:2632   */\n      0x4e487b71\n        /* \"#utility.yul\":2617:2620   */\n      0xe0\n        /* \"#utility.yul\":2613:2633   */\n      shl\n        /* \"#utility.yul\":2610:2611   */\n      0x00\n        /* \"#utility.yul\":2603:2634   */\n      mstore\n        /* \"#utility.yul\":2653:2657   */\n      0x11\n        /* \"#utility.yul\":2650:2651   */\n      0x04\n        /* \"#utility.yul\":2643:2658   */\n      mstore\n        /* \"#utility.yul\":2677:2681   */\n      0x24\n        /* \"#utility.yul\":2674:2675   */\n      0x00\n        /* \"#utility.yul\":2667:2682   */\n      revert\n        /* \"#utility.yul\":2693:2821   */\n    tag_142:\n        /* \"#utility.yul\":2760:2769   */\n      dup2\n      dup2\n      sub\n        /* \"#utility.yul\":2781:2792   */\n      dup2\n      dup2\n      gt\n        /* \"#utility.yul\":2778:2815   */\n      iszero\n      tag_271\n      jumpi\n        /* \"#utility.yul\":2795:2813   */\n      tag_271\n      tag_250\n      jump\t// in\n    tag_271:\n        /* \"#utility.yul\":2693:2821   */\n      swap3\n      swap2\n      pop\n      pop\n      jump\t// out\n        /* \"#utility.yul\":3078:3205   */\n    tag_251:\n        /* \"#utility.yul\":3139:3149   */\n      0x4e487b71\n        /* \"#utility.yul\":3134:3137   */\n      0xe0\n        /* \"#utility.yul\":3130:3150   */\n      shl\n        /* \"#utility.yul\":3127:3128   */\n      0x00\n        /* \"#utility.yul\":3120:3151   */\n      mstore\n        /* \"#utility.yul\":3170:3174   */\n      0x12\n        /* \"#utility.yul\":3167:3168   */\n      0x04\n        /* \"#utility.yul\":3160:3175   */\n      mstore\n        /* \"#utility.yul\":3194:3198   */\n      0x24\n        /* \"#utility.yul\":3191:3192   */\n      0x00\n        /* \"#utility.yul\":3184:3199   */\n      revert\n        /* \"#utility.yul\":3210:3322   */\n    tag_146:\n        /* \"#utility.yul\":3242:3243   */\n      0x00\n        /* \"#utility.yul\":3268:3269   */\n      dup3\n        /* \"#utility.yul\":3258:3293   */\n      tag_276\n      jumpi\n        /* \"#utility.yul\":3273:3291   */\n      tag_276\n      tag_251\n      jump\t// in\n    tag_276:\n      pop\n        /* \"#utility.yul\":3307:3316   */\n      mod\n      swap1\n        /* \"#utility.yul\":3210:3322   */\n      jump\t// out\n        /* \"#utility.yul\":3327:3454   */\n    tag_149:\n        /* \"#utility.yul\":3388:3398   */\n      0x4e487b71\n        /* \"#utility.yul\":3383:3386   */\n      0xe0\n        /* \"#utility.yul\":3379:3399   */\n      shl\n        /* \"#utility.yul\":3376:3377   */\n      0x00\n        /* \"#utility.yul\":3369:3400   */\n      mstore\n        /* \"#utility.yul\":3419:3423   */\n      0x32\n        /* \"#utility.yul\":3416:3417   */\n      0x04\n        /* \"#utility.yul\":3409:3424   */\n      mstore\n        /* \"#utility.yul\":3443:3447   */\n      0x24\n        /* \"#utility.yul\":3440:3441   */\n      0x00\n        /* \"#utility.yul\":3433:3448   */\n      revert\n        /* \"#utility.yul\":3459:3627   */\n    tag_153:\n        /* \"#utility.yul\":3532:3541   */\n      dup1\n      dup3\n      mul\n        /* \"#utility.yul\":3563:3572   */\n      dup2\n      iszero\n        /* \"#utility.yul\":3580:3595   */\n      dup3\n      dup3\n      div\n        /* \"#utility.yul\":3574:3596   */\n      dup5\n      eq\n        /* \"#utility.yul\":3560:3597   */\n      or\n        /* \"#utility.yul\":3550:3621   */\n      tag_271\n      jumpi\n        /* \"#utility.yul\":3601:3619   */\n      tag_271\n      tag_250\n      jump\t// in\n        /* \"#utility.yul\":3632:3757   */\n    tag_155:\n        /* \"#utility.yul\":3697:3706   */\n      dup1\n      dup3\n      add\n        /* \"#utility.yul\":3718:3728   */\n      dup1\n      dup3\n      gt\n        /* \"#utility.yul\":3715:3751   */\n      iszero\n      tag_271\n      jumpi\n        /* \"#utility.yul\":3731:3749   */\n      tag_271\n      tag_250\n      jump\t// in\n        /* \"#utility.yul\":4113:4363   */\n    tag_252:\n        /* \"#utility.yul\":4198:4199   */\n      0x00\n        /* \"#utility.yul\":4208:4321   */\n    tag_286:\n        /* \"#utility.yul\":4222:4228   */\n      dup4\n        /* \"#utility.yul\":4219:4220   */\n      dup2\n        /* \"#utility.yul\":4216:4229   */\n      lt\n        /* \"#utility.yul\":4208:4321   */\n      iszero\n      tag_288\n      jumpi\n        /* \"#utility.yul\":4298:4309   */\n      dup2\n      dup2\n      add\n        /* \"#utility.yul\":4292:4310   */\n      mload\n        /* \"#utility.yul\":4279:4290   */\n      dup4\n      dup3\n      add\n        /* \"#utility.yul\":4272:4311   */\n      mstore\n        /* \"#utility.yul\":4244:4246   */\n      0x20\n        /* \"#utility.yul\":4237:4247   */\n      add\n        /* \"#utility.yul\":4208:4321   */\n      jump(tag_286)\n    tag_288:\n      pop\n      pop\n        /* \"#utility.yul\":4355:4356   */\n      0x00\n        /* \"#utility.yul\":4337:4353   */\n      swap2\n      add\n        /* \"#utility.yul\":4330:4357   */\n      mstore\n        /* \"#utility.yul\":4113:4363   */\n      jump\t// out\n        /* \"#utility.yul\":4368:4969   */\n    tag_179:\n        /* \"#utility.yul\":4710:4742   */\n      0x7468652076616c7565206d757374206265206d756c7469706c65206f66200000\n        /* \"#utility.yul\":4705:4708   */\n      dup2\n        /* \"#utility.yul\":4698:4743   */\n      mstore\n        /* \"#utility.yul\":4680:4683   */\n      0x00\n        /* \"#utility.yul\":4772:4778   */\n      dup3\n        /* \"#utility.yul\":4766:4779   */\n      mload\n        /* \"#utility.yul\":4788:4863   */\n      tag_290\n        /* \"#utility.yul\":4856:4862   */\n      dup2\n        /* \"#utility.yul\":4851:4853   */\n      0x1e\n        /* \"#utility.yul\":4846:4849   */\n      dup6\n        /* \"#utility.yul\":4842:4854   */\n      add\n        /* \"#utility.yul\":4835:4839   */\n      0x20\n        /* \"#utility.yul\":4827:4833   */\n      dup8\n        /* \"#utility.yul\":4823:4840   */\n      add\n        /* \"#utility.yul\":4788:4863   */\n      tag_252\n      jump\t// in\n    tag_290:\n        /* \"#utility.yul\":4927:4935   */\n      0x2045746865720000000000000000000000000000000000000000000000000000\n        /* \"#utility.yul\":4922:4924   */\n      0x1e\n        /* \"#utility.yul\":4882:4898   */\n      swap4\n      swap1\n      swap2\n      add\n        /* \"#utility.yul\":4914:4925   */\n      swap3\n      dup4\n      add\n        /* \"#utility.yul\":4907:4936   */\n      mstore\n      pop\n        /* \"#utility.yul\":4960:4962   */\n      0x24\n        /* \"#utility.yul\":4952:4963   */\n      add\n      swap2\n        /* \"#utility.yul\":4368:4969   */\n      swap1\n      pop\n      jump\t// out\n        /* \"#utility.yul\":4974:5370   */\n    tag_182:\n        /* \"#utility.yul\":5123:5125   */\n      0x20\n        /* \"#utility.yul\":5112:5121   */\n      dup2\n        /* \"#utility.yul\":5105:5126   */\n      mstore\n        /* \"#utility.yul\":5086:5090   */\n      0x00\n        /* \"#utility.yul\":5155:5161   */\n      dup3\n        /* \"#utility.yul\":5149:5162   */\n      mload\n        /* \"#utility.yul\":5198:5204   */\n      dup1\n        /* \"#utility.yul\":5193:5195   */\n      0x20\n        /* \"#utility.yul\":5182:5191   */\n      dup5\n        /* \"#utility.yul\":5178:5196   */\n      add\n        /* \"#utility.yul\":5171:5205   */\n      mstore\n        /* \"#utility.yul\":5214:5293   */\n      tag_292\n        /* \"#utility.yul\":5286:5292   */\n      dup2\n        /* \"#utility.yul\":5281:5283   */\n      0x40\n        /* \"#utility.yul\":5270:5279   */\n      dup6\n        /* \"#utility.yul\":5266:5284   */\n      add\n        /* \"#utility.yul\":5261:5263   */\n      0x20\n        /* \"#utility.yul\":5253:5259   */\n      dup8\n        /* \"#utility.yul\":5249:5264   */\n      add\n        /* \"#utility.yul\":5214:5293   */\n      tag_252\n      jump\t// in\n    tag_292:\n        /* \"#utility.yul\":5354:5356   */\n      0x1f\n        /* \"#utility.yul\":5333:5348   */\n      add\n      not(0x1f)\n        /* \"#utility.yul\":5329:5358   */\n      and\n        /* \"#utility.yul\":5314:5359   */\n      swap2\n      swap1\n      swap2\n      add\n        /* \"#utility.yul\":5361:5363   */\n      0x40\n        /* \"#utility.yul\":5310:5364   */\n      add\n      swap3\n        /* \"#utility.yul\":4974:5370   */\n      swap2\n      pop\n      pop\n      jump\t// out\n        /* \"#utility.yul\":5375:5495   */\n    tag_184:\n        /* \"#utility.yul\":5415:5416   */\n      0x00\n        /* \"#utility.yul\":5441:5442   */\n      dup3\n        /* \"#utility.yul\":5431:5466   */\n      tag_295\n      jumpi\n        /* \"#utility.yul\":5446:5464   */\n      tag_295\n      tag_251\n      jump\t// in\n    tag_295:\n      pop\n        /* \"#utility.yul\":5480:5489   */\n      div\n      swap1\n        /* \"#utility.yul\":5375:5495   */\n      jump\t// out\n        /* \"#utility.yul\":5858:5993   */\n    tag_194:\n        /* \"#utility.yul\":5897:5900   */\n      0x00\n        /* \"#utility.yul\":5918:5935   */\n      0x01\n      dup3\n      add\n        /* \"#utility.yul\":5915:5958   */\n      tag_299\n      jumpi\n        /* \"#utility.yul\":5938:5956   */\n      tag_299\n      tag_250\n      jump\t// in\n    tag_299:\n      pop\n        /* \"#utility.yul\":5985:5986   */\n      0x01\n        /* \"#utility.yul\":5974:5987   */\n      add\n      swap1\n        /* \"#utility.yul\":5858:5993   */\n      jump\t// out\n        /* \"#utility.yul\":6761:6888   */\n    tag_235:\n        /* \"#utility.yul\":6822:6832   */\n      0x4e487b71\n        /* \"#utility.yul\":6817:6820   */\n      0xe0\n        /* \"#utility.yul\":6813:6833   */\n      shl\n        /* \"#utility.yul\":6810:6811   */\n      0x00\n        /* \"#utility.yul\":6803:6834   */\n      mstore\n        /* \"#utility.yul\":6853:6857   */\n      0x41\n        /* \"#utility.yul\":6850:6851   */\n      0x04\n        /* \"#utility.yul\":6843:6858   */\n      mstore\n        /* \"#utility.yul\":6877:6881   */\n      0x24\n        /* \"#utility.yul\":6874:6875   */\n      0x00\n        /* \"#utility.yul\":6867:6882   */\n      revert\n\n    auxdata: 0xa26469706673582212202852e106c9043b80a9c4b4b84c4001712496cd3f79f8ba3898f0cc0c20558d1364736f6c63430008110033\n}\n",
    "bytecode": {
      "linkReferences": {},
      "object": "6080604052600060025534801561001557600080fd5b50600180546001600160a01b03191633179055610034610e104261003c565b600055610063565b8082018082111561005d57634e487b7160e01b600052601160045260246000fd5b92915050565b610f5c806100726000396000f3fe6080604052600436106101805760003560e01c806371827b7b116100d6578063ba946d791161007f578063ea3a149911610059578063ea3a1499146103c6578063f2613269146103f3578063fe1881841461040857600080fd5b8063ba946d7914610365578063c6944fa01461037b578063dd64e5341461039057600080fd5b806396c85ef3116100b057806396c85ef31461030a5780639b89470314610339578063a88f46721461035057600080fd5b806371827b7b146102d857806391d8b14e146102ed57806393a563b5146102f557600080fd5b80634665096d1161013857806350b447121161011257806350b44712146102655780635a58acdd1461029d5780636032a4f9146102bd57600080fd5b80634665096d146102185780634788af7c1461022e5780634ed026221461024357600080fd5b80630fb5a6b4116101695780630fb5a6b4146101d05780631209b1f6146101e657806335580df21461020157600080fd5b806306f7f3bf146101855780630789c607146101ae575b600080fd5b34801561019157600080fd5b5061019b60045481565b6040519081526020015b60405180910390f35b3480156101ba57600080fd5b503360009081526005602052604090205461019b565b3480156101dc57600080fd5b5061019b610e1081565b3480156101f257600080fd5b5061019b662386f26fc1000081565b34801561020d57600080fd5b50610216610428565b005b34801561022457600080fd5b5061019b60005481565b34801561023a57600080fd5b506102166104cf565b34801561024f57600080fd5b506102586106e3565b6040516101a59190610cf1565b34801561027157600080fd5b50610285610280366004610d3e565b610745565b6040516001600160a01b0390911681526020016101a5565b3480156102a957600080fd5b50600154610285906001600160a01b031681565b3480156102c957600080fd5b5061019b6601c6bf5263400081565b3480156102e457600080fd5b5061021661076f565b61021661080e565b34801561030157600080fd5b5061019b61094a565b34801561031657600080fd5b5033600090815260056020526040902054151560405190151581526020016101a5565b34801561034557600080fd5b5061019b620f424081565b34801561035c57600080fd5b50610216610962565b34801561037157600080fd5b5061019b60025481565b34801561038757600080fd5b5061019b610a86565b34801561039c57600080fd5b5061019b6103ab366004610d57565b6001600160a01b031660009081526005602052604090205490565b3480156103d257600080fd5b5061019b6103e1366004610d57565b60056020526000908152604090205481565b3480156103ff57600080fd5b50610216610a9e565b34801561041457600080fd5b50600354610285906001600160a01b031681565b6001546001600160a01b031633146104925760405162461bcd60e51b815260206004820152602260248201527f43616c6c6572206973206e6f7420746865206c6f7474657279206f706572617460448201526137b960f11b60648201526084015b60405180910390fd5b600280546000918290556040513392839183156108fc0291849190818181858888f193505050501580156104ca573d6000803e3d6000fd5b505050565b6001546001600160a01b031633146105345760405162461bcd60e51b815260206004820152602260248201527f43616c6c6572206973206e6f7420746865206c6f7474657279206f706572617460448201526137b960f11b6064820152608401610489565b6006546105835760405162461bcd60e51b815260206004820152601960248201527f4e6f207469636b657473207765726520707572636861736564000000000000006044820152606401610489565b6006546000906105939043610d9d565b604080514260208201529140908201819052915060009060600160408051601f1981840301815291905280516020909101206006549091506000906105d89083610dcc565b90506000600682815481106105ef576105ef610de0565b6000918252602090912001546003805473ffffffffffffffffffffffffffffffffffffffff19166001600160a01b03909216918217905590506106406601c6bf52634000662386f26fc10000610d9d565b60065461064d9190610df6565b6001600160a01b03821660009081526005602052604081208054909190610675908490610e0d565b90915550506001600160a01b0381166000908152600560205260409020546004556006546106ab906601c6bf5263400090610df6565b600260008282546106bc9190610e0d565b909155506106ce905060066000610cb7565b6106da610e1042610e0d565b60005550505050565b6060600680548060200260200160405190810160405280929190818152602001828054801561073b57602002820191906000526020600020905b81546001600160a01b0316815260019091019060200180831161071d575b5050505050905090565b6006818154811061075557600080fd5b6000918252602090912001546001600160a01b0316905081565b336000908152600560205260409020546107cb5760405162461bcd60e51b815260206004820152601660248201527f43616c6c6572206973206e6f7420612077696e6e6572000000000000000000006044820152606401610489565b3360008181526005602052604080822080549083905590519091839183156108fc0291849190818181858888f193505050501580156104ca573d6000803e3d6000fd5b61081f662386f26fc1000034610dcc565b15610830662386f26fc10000610b96565b6040516020016108409190610e44565b6040516020818303038152906040529061086d5760405162461bcd60e51b81526004016104899190610eb0565b506000610881662386f26fc1000034610ee3565b905061088b61094a565b8111156108da5760405162461bcd60e51b815260206004820152601d60248201527f4e6f7420656e6f756768207469636b65747320617661696c61626c652e0000006044820152606401610489565b60005b8181101561094657600680546001810182556000919091527ff652222313e28459528d920b65115c16c04f3efc82aaedc97be59f3f377c0d3f01805473ffffffffffffffffffffffffffffffffffffffff1916331790558061093e81610ef7565b9150506108dd565b5050565b60065460009061095d90620f4240610d9d565b905090565b6000544210156109b45760405162461bcd60e51b815260206004820152601b60248201527f746865206c6f7474657279206e6f7420657870697265642079657400000000006044820152606401610489565b60005b600654811015610a77576000600682815481106109d6576109d6610de0565b6000918252602082200154600680546001600160a01b0390921693509084908110610a0357610a03610de0565b60009182526020822001805473ffffffffffffffffffffffffffffffffffffffff19166001600160a01b0393841617905560405191831691662386f26fc100009082818181858883f19350505050158015610a62573d6000803e3d6000fd5b50508080610a6f90610ef7565b9150506109b7565b50610a8460066000610cb7565b565b60065460009061095d90662386f26fc1000090610df6565b6001546001600160a01b03163314610b035760405162461bcd60e51b815260206004820152602260248201527f43616c6c6572206973206e6f7420746865206c6f7474657279206f706572617460448201526137b960f11b6064820152608401610489565b60065415610b795760405162461bcd60e51b815260206004820152602660248201527f43616e6e6f74205265737461727420447261772061732044726177206973206960448201527f6e20706c617900000000000000000000000000000000000000000000000000006064820152608401610489565b610b8560066000610cb7565b610b91610e1042610e0d565b600055565b606081600003610bbd5750506040805180820190915260018152600360fc1b602082015290565b8160005b8115610be75780610bd181610ef7565b9150610be09050600a83610ee3565b9150610bc1565b60008167ffffffffffffffff811115610c0257610c02610f10565b6040519080825280601f01601f191660200182016040528015610c2c576020820181803683370190505b5090505b8415610caf57610c41600183610d9d565b9150610c4e600a86610dcc565b610c59906030610e0d565b60f81b818381518110610c6e57610c6e610de0565b60200101907effffffffffffffffffffffffffffffffffffffffffffffffffffffffffffff1916908160001a905350610ca8600a86610ee3565b9450610c30565b949350505050565b5080546000825590600052602060002090810190610cd59190610cd8565b50565b5b80821115610ced5760008155600101610cd9565b5090565b6020808252825182820181905260009190848201906040850190845b81811015610d325783516001600160a01b031683529284019291840191600101610d0d565b50909695505050505050565b600060208284031215610d5057600080fd5b5035919050565b600060208284031215610d6957600080fd5b81356001600160a01b0381168114610d8057600080fd5b9392505050565b634e487b7160e01b600052601160045260246000fd5b81810381811115610db057610db0610d87565b92915050565b634e487b7160e01b600052601260045260246000fd5b600082610ddb57610ddb610db6565b500690565b634e487b7160e01b600052603260045260246000fd5b8082028115828204841417610db057610db0610d87565b80820180821115610db057610db0610d87565b60005b83811015610e3b578181015183820152602001610e23565b50506000910152565b7f7468652076616c7565206d757374206265206d756c7469706c65206f66200000815260008251610e7c81601e850160208701610e20565b7f2045746865720000000000000000000000000000000000000000000000000000601e939091019283015250602401919050565b6020815260008251806020840152610ecf816040850160208701610e20565b601f01601f19169190910160400192915050565b600082610ef257610ef2610db6565b500490565b600060018201610f0957610f09610d87565b5060010190565b634e487b7160e01b600052604160045260246000fdfea26469706673582212202852e106c9043b80a9c4b4b84c4001712496cd3f79f8ba3898f0cc0c20558d1364736f6c63430008110033",
      "opcodes": "PUSH1 0x80 PUSH1 0x40 MSTORE PUSH1 0x0 PUSH1 0x2 SSTORE CALLVALUE DUP1 ISZERO PUSH2 0x15 JUMPI PUSH1 0x0 DUP1 REVERT JUMPDEST POP PUSH1 0x1 DUP1 SLOAD PUSH1 0x1 PUSH1 0x1 PUSH1 0xA0 SHL SUB NOT AND CALLER OR SWAP1 SSTORE PUSH2 0x34 PUSH2 0xE10 TIMESTAMP PUSH2 0x3C JUMP JUMPDEST PUSH1 0x0 SSTORE PUSH2 0x63 JUMP JUMPDEST DUP1 DUP3 ADD DUP1 DUP3 GT ISZERO PUSH2 0x5D JUMPI PUSH4 0x4E487B71 PUSH1 0xE0 SHL PUSH1 0x0 MSTORE PUSH1 0x11 PUSH1 0x4 MSTORE PUSH1 0x24 PUSH1 0x0 REVERT JUMPDEST SWAP3 SWAP2 POP POP JUMP JUMPDEST PUSH2 0xF5C DUP1 PUSH2 0x72 PUSH1 0x0 CODECOPY PUSH1 0x0 RETURN INVALID PUSH1 0x80 PUSH1 0x40 MSTORE PUSH1 0x4 CALLDATASIZE LT PUSH2 0x180 JUMPI PUSH1 0x0 CALLDATALOAD PUSH1 0xE0 SHR DUP1 PUSH4 0x71827B7B GT PUSH2 0xD6 JUMPI DUP1 PUSH4 0xBA946D79 GT PUSH2 0x7F JUMPI DUP1 PUSH4 0xEA3A1499 GT PUSH2 0x59 JUMPI DUP1 PUSH4 0xEA3A1499 EQ PUSH2 0x3C6 JUMPI DUP1 PUSH4 0xF2613269 EQ PUSH2 0x3F3 JUMPI DUP1 PUSH4 0xFE188184 EQ PUSH2 0x408 JUMPI PUSH1 0x0 DUP1 REVERT JUMPDEST DUP1 PUSH4 0xBA946D79 EQ PUSH2 0x365 JUMPI DUP1 PUSH4 0xC6944FA0 EQ PUSH2 0x37B JUMPI DUP1 PUSH4 0xDD64E534 EQ PUSH2 0x390 JUMPI PUSH1 0x0 DUP1 REVERT JUMPDEST DUP1 PUSH4 0x96C85EF3 GT PUSH2 0xB0 JUMPI DUP1 PUSH4 0x96C85EF3 EQ PUSH2 0x30A JUMPI DUP1 PUSH4 0x9B894703 EQ PUSH2 0x339 JUMPI DUP1 PUSH4 0xA88F4672 EQ PUSH2 0x350 JUMPI PUSH1 0x0 DUP1 REVERT JUMPDEST DUP1 PUSH4 0x71827B7B EQ PUSH2 0x2D8 JUMPI DUP1 PUSH4 0x91D8B14E EQ PUSH2 0x2ED JUMPI DUP1 PUSH4 0x93A563B5 EQ PUSH2 0x2F5 JUMPI PUSH1 0x0 DUP1 REVERT JUMPDEST DUP1 PUSH4 0x4665096D GT PUSH2 0x138 JUMPI DUP1 PUSH4 0x50B44712 GT PUSH2 0x112 JUMPI DUP1 PUSH4 0x50B44712 EQ PUSH2 0x265 JUMPI DUP1 PUSH4 0x5A58ACDD EQ PUSH2 0x29D JUMPI DUP1 PUSH4 0x6032A4F9 EQ PUSH2 0x2BD JUMPI PUSH1 0x0 DUP1 REVERT JUMPDEST DUP1 PUSH4 0x4665096D EQ PUSH2 0x218 JUMPI DUP1 PUSH4 0x4788AF7C EQ PUSH2 0x22E JUMPI DUP1 PUSH4 0x4ED02622 EQ PUSH2 0x243 JUMPI PUSH1 0x0 DUP1 REVERT JUMPDEST DUP1 PUSH4 0xFB5A6B4 GT PUSH2 0x169 JUMPI DUP1 PUSH4 0xFB5A6B4 EQ PUSH2 0x1D0 JUMPI DUP1 PUSH4 0x1209B1F6 EQ PUSH2 0x1E6 JUMPI DUP1 PUSH4 0x35580DF2 EQ PUSH2 0x201 JUMPI PUSH1 0x0 DUP1 REVERT JUMPDEST DUP1 PUSH4 0x6F7F3BF EQ PUSH2 0x185 JUMPI DUP1 PUSH4 0x789C607 EQ PUSH2 0x1AE JUMPI JUMPDEST PUSH1 0x0 DUP1 REVERT JUMPDEST CALLVALUE DUP1 ISZERO PUSH2 0x191 JUMPI PUSH1 0x0 DUP1 REVERT JUMPDEST POP PUSH2 0x19B PUSH1 0x4 SLOAD DUP2 JUMP JUMPDEST PUSH1 0x40 MLOAD SWAP1 DUP2 MSTORE PUSH1 0x20 ADD JUMPDEST PUSH1 0x40 MLOAD DUP1 SWAP2 SUB SWAP1 RETURN JUMPDEST CALLVALUE DUP1 ISZERO PUSH2 0x1BA JUMPI PUSH1 0x0 DUP1 REVERT JUMPDEST POP CALLER PUSH1 0x0 SWAP1 DUP2 MSTORE PUSH1 0x5 PUSH1 0x20 MSTORE PUSH1 0x40 SWAP1 KECCAK256 SLOAD PUSH2 0x19B JUMP JUMPDEST CALLVALUE DUP1 ISZERO PUSH2 0x1DC JUMPI PUSH1 0x0 DUP1 REVERT JUMPDEST POP PUSH2 0x19B PUSH2 0xE10 DUP2 JUMP JUMPDEST CALLVALUE DUP1 ISZERO PUSH2 0x1F2 JUMPI PUSH1 0x0 DUP1 REVERT JUMPDEST POP PUSH2 0x19B PUSH7 0x2386F26FC10000 DUP2 JUMP JUMPDEST CALLVALUE DUP1 ISZERO PUSH2 0x20D JUMPI PUSH1 0x0 DUP1 REVERT JUMPDEST POP PUSH2 0x216 PUSH2 0x428 JUMP JUMPDEST STOP JUMPDEST CALLVALUE DUP1 ISZERO PUSH2 0x224 JUMPI PUSH1 0x0 DUP1 REVERT JUMPDEST POP PUSH2 0x19B PUSH1 0x0 SLOAD DUP2 JUMP JUMPDEST CALLVALUE DUP1 ISZERO PUSH2 0x23A JUMPI PUSH1 0x0 DUP1 REVERT JUMPDEST POP PUSH2 0x216 PUSH2 0x4CF JUMP JUMPDEST CALLVALUE DUP1 ISZERO PUSH2 0x24F JUMPI PUSH1 0x0 DUP1 REVERT JUMPDEST POP PUSH2 0x258 PUSH2 0x6E3 JUMP JUMPDEST PUSH1 0x40 MLOAD PUSH2 0x1A5 SWAP2 SWAP1 PUSH2 0xCF1 JUMP JUMPDEST CALLVALUE DUP1 ISZERO PUSH2 0x271 JUMPI PUSH1 0x0 DUP1 REVERT JUMPDEST POP PUSH2 0x285 PUSH2 0x280 CALLDATASIZE PUSH1 0x4 PUSH2 0xD3E JUMP JUMPDEST PUSH2 0x745 JUMP JUMPDEST PUSH1 0x40 MLOAD PUSH1 0x1 PUSH1 0x1 PUSH1 0xA0 SHL SUB SWAP1 SWAP2 AND DUP2 MSTORE PUSH1 0x20 ADD PUSH2 0x1A5 JUMP JUMPDEST CALLVALUE DUP1 ISZERO PUSH2 0x2A9 JUMPI PUSH1 0x0 DUP1 REVERT JUMPDEST POP PUSH1 0x1 SLOAD PUSH2 0x285 SWAP1 PUSH1 0x1 PUSH1 0x1 PUSH1 0xA0 SHL SUB AND DUP2 JUMP JUMPDEST CALLVALUE DUP1 ISZERO PUSH2 0x2C9 JUMPI PUSH1 0x0 DUP1 REVERT JUMPDEST POP PUSH2 0x19B PUSH7 0x1C6BF52634000 DUP2 JUMP JUMPDEST CALLVALUE DUP1 ISZERO PUSH2 0x2E4 JUMPI PUSH1 0x0 DUP1 REVERT JUMPDEST POP PUSH2 0x216 PUSH2 0x76F JUMP JUMPDEST PUSH2 0x216 PUSH2 0x80E JUMP JUMPDEST CALLVALUE DUP1 ISZERO PUSH2 0x301 JUMPI PUSH1 0x0 DUP1 REVERT JUMPDEST POP PUSH2 0x19B PUSH2 0x94A JUMP JUMPDEST CALLVALUE DUP1 ISZERO PUSH2 0x316 JUMPI PUSH1 0x0 DUP1 REVERT JUMPDEST POP CALLER PUSH1 0x0 SWAP1 DUP2 MSTORE PUSH1 0x5 PUSH1 0x20 MSTORE PUSH1 0x40 SWAP1 KECCAK256 SLOAD ISZERO ISZERO PUSH1 0x40 MLOAD SWAP1 ISZERO ISZERO DUP2 MSTORE PUSH1 0x20 ADD PUSH2 0x1A5 JUMP JUMPDEST CALLVALUE DUP1 ISZERO PUSH2 0x345 JUMPI PUSH1 0x0 DUP1 REVERT JUMPDEST POP PUSH2 0x19B PUSH3 0xF4240 DUP2 JUMP JUMPDEST CALLVALUE DUP1 ISZERO PUSH2 0x35C JUMPI PUSH1 0x0 DUP1 REVERT JUMPDEST POP PUSH2 0x216 PUSH2 0x962 JUMP JUMPDEST CALLVALUE DUP1 ISZERO PUSH2 0x371 JUMPI PUSH1 0x0 DUP1 REVERT JUMPDEST POP PUSH2 0x19B PUSH1 0x2 SLOAD DUP2 JUMP JUMPDEST CALLVALUE DUP1 ISZERO PUSH2 0x387 JUMPI PUSH1 0x0 DUP1 REVERT JUMPDEST POP PUSH2 0x19B PUSH2 0xA86 JUMP JUMPDEST CALLVALUE DUP1 ISZERO PUSH2 0x39C JUMPI PUSH1 0x0 DUP1 REVERT JUMPDEST POP PUSH2 0x19B PUSH2 0x3AB CALLDATASIZE PUSH1 0x4 PUSH2 0xD57 JUMP JUMPDEST PUSH1 0x1 PUSH1 0x1 PUSH1 0xA0 SHL SUB AND PUSH1 0x0 SWAP1 DUP2 MSTORE PUSH1 0x5 PUSH1 0x20 MSTORE PUSH1 0x40 SWAP1 KECCAK256 SLOAD SWAP1 JUMP JUMPDEST CALLVALUE DUP1 ISZERO PUSH2 0x3D2 JUMPI PUSH1 0x0 DUP1 REVERT JUMPDEST POP PUSH2 0x19B PUSH2 0x3E1 CALLDATASIZE PUSH1 0x4 PUSH2 0xD57 JUMP JUMPDEST PUSH1 0x5 PUSH1 0x20 MSTORE PUSH1 0x0 SWAP1 DUP2 MSTORE PUSH1 0x40 SWAP1 KECCAK256 SLOAD DUP2 JUMP JUMPDEST CALLVALUE DUP1 ISZERO PUSH2 0x3FF JUMPI PUSH1 0x0 DUP1 REVERT JUMPDEST POP PUSH2 0x216 PUSH2 0xA9E JUMP JUMPDEST CALLVALUE DUP1 ISZERO PUSH2 0x414 JUMPI PUSH1 0x0 DUP1 REVERT JUMPDEST POP PUSH1 0x3 SLOAD PUSH2 0x285 SWAP1 PUSH1 0x1 PUSH1 0x1 PUSH1 0xA0 SHL SUB AND DUP2 JUMP JUMPDEST PUSH1 0x1 SLOAD PUSH1 0x1 PUSH1 0x1 PUSH1 0xA0 SHL SUB AND CALLER EQ PUSH2 0x492 JUMPI PUSH1 0x40 MLOAD PUSH3 0x461BCD PUSH1 0xE5 SHL DUP2 MSTORE PUSH1 0x20 PUSH1 0x4 DUP3 ADD MSTORE PUSH1 0x22 PUSH1 0x24 DUP3 ADD MSTORE PUSH32 0x43616C6C6572206973206E6F7420746865206C6F7474657279206F7065726174 PUSH1 0x44 DUP3 ADD MSTORE PUSH2 0x37B9 PUSH1 0xF1 SHL PUSH1 0x64 DUP3 ADD MSTORE PUSH1 0x84 ADD JUMPDEST PUSH1 0x40 MLOAD DUP1 SWAP2 SUB SWAP1 REVERT JUMPDEST PUSH1 0x2 DUP1 SLOAD PUSH1 0x0 SWAP2 DUP3 SWAP1 SSTORE PUSH1 0x40 MLOAD CALLER SWAP3 DUP4 SWAP2 DUP4 ISZERO PUSH2 0x8FC MUL SWAP2 DUP5 SWAP2 SWAP1 DUP2 DUP2 DUP2 DUP6 DUP9 DUP9 CALL SWAP4 POP POP POP POP ISZERO DUP1 ISZERO PUSH2 0x4CA JUMPI RETURNDATASIZE PUSH1 0x0 DUP1 RETURNDATACOPY RETURNDATASIZE PUSH1 0x0 REVERT JUMPDEST POP POP POP JUMP JUMPDEST PUSH1 0x1 SLOAD PUSH1 0x1 PUSH1 0x1 PUSH1 0xA0 SHL SUB AND CALLER EQ PUSH2 0x534 JUMPI PUSH1 0x40 MLOAD PUSH3 0x461BCD PUSH1 0xE5 SHL DUP2 MSTORE PUSH1 0x20 PUSH1 0x4 DUP3 ADD MSTORE PUSH1 0x22 PUSH1 0x24 DUP3 ADD MSTORE PUSH32 0x43616C6C6572206973206E6F7420746865206C6F7474657279206F7065726174 PUSH1 0x44 DUP3 ADD MSTORE PUSH2 0x37B9 PUSH1 0xF1 SHL PUSH1 0x64 DUP3 ADD MSTORE PUSH1 0x84 ADD PUSH2 0x489 JUMP JUMPDEST PUSH1 0x6 SLOAD PUSH2 0x583 JUMPI PUSH1 0x40 MLOAD PUSH3 0x461BCD PUSH1 0xE5 SHL DUP2 MSTORE PUSH1 0x20 PUSH1 0x4 DUP3 ADD MSTORE PUSH1 0x19 PUSH1 0x24 DUP3 ADD MSTORE PUSH32 0x4E6F207469636B65747320776572652070757263686173656400000000000000 PUSH1 0x44 DUP3 ADD MSTORE PUSH1 0x64 ADD PUSH2 0x489 JUMP JUMPDEST PUSH1 0x6 SLOAD PUSH1 0x0 SWAP1 PUSH2 0x593 SWAP1 NUMBER PUSH2 0xD9D JUMP JUMPDEST PUSH1 0x40 DUP1 MLOAD TIMESTAMP PUSH1 0x20 DUP3 ADD MSTORE SWAP2 BLOCKHASH SWAP1 DUP3 ADD DUP2 SWAP1 MSTORE SWAP2 POP PUSH1 0x0 SWAP1 PUSH1 0x60 ADD PUSH1 0x40 DUP1 MLOAD PUSH1 0x1F NOT DUP2 DUP5 SUB ADD DUP2 MSTORE SWAP2 SWAP1 MSTORE DUP1 MLOAD PUSH1 0x20 SWAP1 SWAP2 ADD KECCAK256 PUSH1 0x6 SLOAD SWAP1 SWAP2 POP PUSH1 0x0 SWAP1 PUSH2 0x5D8 SWAP1 DUP4 PUSH2 0xDCC JUMP JUMPDEST SWAP1 POP PUSH1 0x0 PUSH1 0x6 DUP3 DUP2 SLOAD DUP2 LT PUSH2 0x5EF JUMPI PUSH2 0x5EF PUSH2 0xDE0 JUMP JUMPDEST PUSH1 0x0 SWAP2 DUP3 MSTORE PUSH1 0x20 SWAP1 SWAP2 KECCAK256 ADD SLOAD PUSH1 0x3 DUP1 SLOAD PUSH20 0xFFFFFFFFFFFFFFFFFFFFFFFFFFFFFFFFFFFFFFFF NOT AND PUSH1 0x1 PUSH1 0x1 PUSH1 0xA0 SHL SUB SWAP1 SWAP3 AND SWAP2 DUP3 OR SWAP1 SSTORE SWAP1 POP PUSH2 0x640 PUSH7 0x1C6BF52634000 PUSH7 0x2386F26FC10000 PUSH2 0xD9D JUMP JUMPDEST PUSH1 0x6 SLOAD PUSH2 0x64D SWAP2 SWAP1 PUSH2 0xDF6 JUMP JUMPDEST PUSH1 0x1 PUSH1 0x1 PUSH1 0xA0 SHL SUB DUP3 AND PUSH1 0x0 SWAP1 DUP2 MSTORE PUSH1 0x5 PUSH1 0x20 MSTORE PUSH1 0x40 DUP2 KECCAK256 DUP1 SLOAD SWAP1 SWAP2 SWAP1 PUSH2 0x675 SWAP1 DUP5 SWAP1 PUSH2 0xE0D JUMP JUMPDEST SWAP1 SWAP2 SSTORE POP POP PUSH1 0x1 PUSH1 0x1 PUSH1 0xA0 SHL SUB DUP2 AND PUSH1 0x0 SWAP1 DUP2 MSTORE PUSH1 0x5 PUSH1 0x20 MSTORE PUSH1 0x40 SWAP1 KECCAK256 SLOAD PUSH1 0x4 SSTORE PUSH1 0x6 SLOAD PUSH2 0x6AB SWAP1 PUSH7 0x1C6BF52634000 SWAP1 PUSH2 0xDF6 JUMP JUMPDEST PUSH1 0x2 PUSH1 0x0 DUP3 DUP3 SLOAD PUSH2 0x6BC SWAP2 SWAP1 PUSH2 0xE0D JUMP JUMPDEST SWAP1 SWAP2 SSTORE POP PUSH2 0x6CE SWAP1 POP PUSH1 0x6 PUSH1 0x0 PUSH2 0xCB7 JUMP JUMPDEST PUSH2 0x6DA PUSH2 0xE10 TIMESTAMP PUSH2 0xE0D JUMP JUMPDEST PUSH1 0x0 SSTORE POP POP POP POP JUMP JUMPDEST PUSH1 0x60 PUSH1 0x6 DUP1 SLOAD DUP1 PUSH1 0x20 MUL PUSH1 0x20 ADD PUSH1 0x40 MLOAD SWAP1 DUP2 ADD PUSH1 0x40 MSTORE DUP1 SWAP3 SWAP2 SWAP1 DUP2 DUP2 MSTORE PUSH1 0x20 ADD DUP3 DUP1 SLOAD DUP1 ISZERO PUSH2 0x73B JUMPI PUSH1 0x20 MUL DUP3 ADD SWAP2 SWAP1 PUSH1 0x0 MSTORE PUSH1 0x20 PUSH1 0x0 KECCAK256 SWAP1 JUMPDEST DUP2 SLOAD PUSH1 0x1 PUSH1 0x1 PUSH1 0xA0 SHL SUB AND DUP2 MSTORE PUSH1 0x1 SWAP1 SWAP2 ADD SWAP1 PUSH1 0x20 ADD DUP1 DUP4 GT PUSH2 0x71D JUMPI JUMPDEST POP POP POP POP POP SWAP1 POP SWAP1 JUMP JUMPDEST PUSH1 0x6 DUP2 DUP2 SLOAD DUP2 LT PUSH2 0x755 JUMPI PUSH1 0x0 DUP1 REVERT JUMPDEST PUSH1 0x0 SWAP2 DUP3 MSTORE PUSH1 0x20 SWAP1 SWAP2 KECCAK256 ADD SLOAD PUSH1 0x1 PUSH1 0x1 PUSH1 0xA0 SHL SUB AND SWAP1 POP DUP2 JUMP JUMPDEST CALLER PUSH1 0x0 SWAP1 DUP2 MSTORE PUSH1 0x5 PUSH1 0x20 MSTORE PUSH1 0x40 SWAP1 KECCAK256 SLOAD PUSH2 0x7CB JUMPI PUSH1 0x40 MLOAD PUSH3 0x461BCD PUSH1 0xE5 SHL DUP2 MSTORE PUSH1 0x20 PUSH1 0x4 DUP3 ADD MSTORE PUSH1 0x16 PUSH1 0x24 DUP3 ADD MSTORE PUSH32 0x43616C6C6572206973206E6F7420612077696E6E657200000000000000000000 PUSH1 0x44 DUP3 ADD MSTORE PUSH1 0x64 ADD PUSH2 0x489 JUMP JUMPDEST CALLER PUSH1 0x0 DUP2 DUP2 MSTORE PUSH1 0x5 PUSH1 0x20 MSTORE PUSH1 0x40 DUP1 DUP3 KECCAK256 DUP1 SLOAD SWAP1 DUP4 SWAP1 SSTORE SWAP1 MLOAD SWAP1 SWAP2 DUP4 SWAP2 DUP4 ISZERO PUSH2 0x8FC MUL SWAP2 DUP5 SWAP2 SWAP1 DUP2 DUP2 DUP2 DUP6 DUP9 DUP9 CALL SWAP4 POP POP POP POP ISZERO DUP1 ISZERO PUSH2 0x4CA JUMPI RETURNDATASIZE PUSH1 0x0 DUP1 RETURNDATACOPY RETURNDATASIZE PUSH1 0x0 REVERT JUMPDEST PUSH2 0x81F PUSH7 0x2386F26FC10000 CALLVALUE PUSH2 0xDCC JUMP JUMPDEST ISZERO PUSH2 0x830 PUSH7 0x2386F26FC10000 PUSH2 0xB96 JUMP JUMPDEST PUSH1 0x40 MLOAD PUSH1 0x20 ADD PUSH2 0x840 SWAP2 SWAP1 PUSH2 0xE44 JUMP JUMPDEST PUSH1 0x40 MLOAD PUSH1 0x20 DUP2 DUP4 SUB SUB DUP2 MSTORE SWAP1 PUSH1 0x40 MSTORE SWAP1 PUSH2 0x86D JUMPI PUSH1 0x40 MLOAD PUSH3 0x461BCD PUSH1 0xE5 SHL DUP2 MSTORE PUSH1 0x4 ADD PUSH2 0x489 SWAP2 SWAP1 PUSH2 0xEB0 JUMP JUMPDEST POP PUSH1 0x0 PUSH2 0x881 PUSH7 0x2386F26FC10000 CALLVALUE PUSH2 0xEE3 JUMP JUMPDEST SWAP1 POP PUSH2 0x88B PUSH2 0x94A JUMP JUMPDEST DUP2 GT ISZERO PUSH2 0x8DA JUMPI PUSH1 0x40 MLOAD PUSH3 0x461BCD PUSH1 0xE5 SHL DUP2 MSTORE PUSH1 0x20 PUSH1 0x4 DUP3 ADD MSTORE PUSH1 0x1D PUSH1 0x24 DUP3 ADD MSTORE PUSH32 0x4E6F7420656E6F756768207469636B65747320617661696C61626C652E000000 PUSH1 0x44 DUP3 ADD MSTORE PUSH1 0x64 ADD PUSH2 0x489 JUMP JUMPDEST PUSH1 0x0 JUMPDEST DUP2 DUP2 LT ISZERO PUSH2 0x946 JUMPI PUSH1 0x6 DUP1 SLOAD PUSH1 0x1 DUP2 ADD DUP3 SSTORE PUSH1 0x0 SWAP2 SWAP1 SWAP2 MSTORE PUSH32 0xF652222313E28459528D920B65115C16C04F3EFC82AAEDC97BE59F3F377C0D3F ADD DUP1 SLOAD PUSH20 0xFFFFFFFFFFFFFFFFFFFFFFFFFFFFFFFFFFFFFFFF NOT AND CALLER OR SWAP1 SSTORE DUP1 PUSH2 0x93E DUP2 PUSH2 0xEF7 JUMP JUMPDEST SWAP2 POP POP PUSH2 0x8DD JUMP JUMPDEST POP POP JUMP JUMPDEST PUSH1 0x6 SLOAD PUSH1 0x0 SWAP1 PUSH2 0x95D SWAP1 PUSH3 0xF4240 PUSH2 0xD9D JUMP JUMPDEST SWAP1 POP SWAP1 JUMP JUMPDEST PUSH1 0x0 SLOAD TIMESTAMP LT ISZERO PUSH2 0x9B4 JUMPI PUSH1 0x40 MLOAD PUSH3 0x461BCD PUSH1 0xE5 SHL DUP2 MSTORE PUSH1 0x20 PUSH1 0x4 DUP3 ADD MSTORE PUSH1 0x1B PUSH1 0x24 DUP3 ADD MSTORE PUSH32 0x746865206C6F7474657279206E6F742065787069726564207965740000000000 PUSH1 0x44 DUP3 ADD MSTORE PUSH1 0x64 ADD PUSH2 0x489 JUMP JUMPDEST PUSH1 0x0 JUMPDEST PUSH1 0x6 SLOAD DUP2 LT ISZERO PUSH2 0xA77 JUMPI PUSH1 0x0 PUSH1 0x6 DUP3 DUP2 SLOAD DUP2 LT PUSH2 0x9D6 JUMPI PUSH2 0x9D6 PUSH2 0xDE0 JUMP JUMPDEST PUSH1 0x0 SWAP2 DUP3 MSTORE PUSH1 0x20 DUP3 KECCAK256 ADD SLOAD PUSH1 0x6 DUP1 SLOAD PUSH1 0x1 PUSH1 0x1 PUSH1 0xA0 SHL SUB SWAP1 SWAP3 AND SWAP4 POP SWAP1 DUP5 SWAP1 DUP2 LT PUSH2 0xA03 JUMPI PUSH2 0xA03 PUSH2 0xDE0 JUMP JUMPDEST PUSH1 0x0 SWAP2 DUP3 MSTORE PUSH1 0x20 DUP3 KECCAK256 ADD DUP1 SLOAD PUSH20 0xFFFFFFFFFFFFFFFFFFFFFFFFFFFFFFFFFFFFFFFF NOT AND PUSH1 0x1 PUSH1 0x1 PUSH1 0xA0 SHL SUB SWAP4 DUP5 AND OR SWAP1 SSTORE PUSH1 0x40 MLOAD SWAP2 DUP4 AND SWAP2 PUSH7 0x2386F26FC10000 SWAP1 DUP3 DUP2 DUP2 DUP2 DUP6 DUP9 DUP4 CALL SWAP4 POP POP POP POP ISZERO DUP1 ISZERO PUSH2 0xA62 JUMPI RETURNDATASIZE PUSH1 0x0 DUP1 RETURNDATACOPY RETURNDATASIZE PUSH1 0x0 REVERT JUMPDEST POP POP DUP1 DUP1 PUSH2 0xA6F SWAP1 PUSH2 0xEF7 JUMP JUMPDEST SWAP2 POP POP PUSH2 0x9B7 JUMP JUMPDEST POP PUSH2 0xA84 PUSH1 0x6 PUSH1 0x0 PUSH2 0xCB7 JUMP JUMPDEST JUMP JUMPDEST PUSH1 0x6 SLOAD PUSH1 0x0 SWAP1 PUSH2 0x95D SWAP1 PUSH7 0x2386F26FC10000 SWAP1 PUSH2 0xDF6 JUMP JUMPDEST PUSH1 0x1 SLOAD PUSH1 0x1 PUSH1 0x1 PUSH1 0xA0 SHL SUB AND CALLER EQ PUSH2 0xB03 JUMPI PUSH1 0x40 MLOAD PUSH3 0x461BCD PUSH1 0xE5 SHL DUP2 MSTORE PUSH1 0x20 PUSH1 0x4 DUP3 ADD MSTORE PUSH1 0x22 PUSH1 0x24 DUP3 ADD MSTORE PUSH32 0x43616C6C6572206973206E6F7420746865206C6F7474657279206F7065726174 PUSH1 0x44 DUP3 ADD MSTORE PUSH2 0x37B9 PUSH1 0xF1 SHL PUSH1 0x64 DUP3 ADD MSTORE PUSH1 0x84 ADD PUSH2 0x489 JUMP JUMPDEST PUSH1 0x6 SLOAD ISZERO PUSH2 0xB79 JUMPI PUSH1 0x40 MLOAD PUSH3 0x461BCD PUSH1 0xE5 SHL DUP2 MSTORE PUSH1 0x20 PUSH1 0x4 DUP3 ADD MSTORE PUSH1 0x26 PUSH1 0x24 DUP3 ADD MSTORE PUSH32 0x43616E6E6F742052657374617274204472617720617320447261772069732069 PUSH1 0x44 DUP3 ADD MSTORE PUSH32 0x6E20706C61790000000000000000000000000000000000000000000000000000 PUSH1 0x64 DUP3 ADD MSTORE PUSH1 0x84 ADD PUSH2 0x489 JUMP JUMPDEST PUSH2 0xB85 PUSH1 0x6 PUSH1 0x0 PUSH2 0xCB7 JUMP JUMPDEST PUSH2 0xB91 PUSH2 0xE10 TIMESTAMP PUSH2 0xE0D JUMP JUMPDEST PUSH1 0x0 SSTORE JUMP JUMPDEST PUSH1 0x60 DUP2 PUSH1 0x0 SUB PUSH2 0xBBD JUMPI POP POP PUSH1 0x40 DUP1 MLOAD DUP1 DUP3 ADD SWAP1 SWAP2 MSTORE PUSH1 0x1 DUP2 MSTORE PUSH1 0x3 PUSH1 0xFC SHL PUSH1 0x20 DUP3 ADD MSTORE SWAP1 JUMP JUMPDEST DUP2 PUSH1 0x0 JUMPDEST DUP2 ISZERO PUSH2 0xBE7 JUMPI DUP1 PUSH2 0xBD1 DUP2 PUSH2 0xEF7 JUMP JUMPDEST SWAP2 POP PUSH2 0xBE0 SWAP1 POP PUSH1 0xA DUP4 PUSH2 0xEE3 JUMP JUMPDEST SWAP2 POP PUSH2 0xBC1 JUMP JUMPDEST PUSH1 0x0 DUP2 PUSH8 0xFFFFFFFFFFFFFFFF DUP2 GT ISZERO PUSH2 0xC02 JUMPI PUSH2 0xC02 PUSH2 0xF10 JUMP JUMPDEST PUSH1 0x40 MLOAD SWAP1 DUP1 DUP3 MSTORE DUP1 PUSH1 0x1F ADD PUSH1 0x1F NOT AND PUSH1 0x20 ADD DUP3 ADD PUSH1 0x40 MSTORE DUP1 ISZERO PUSH2 0xC2C JUMPI PUSH1 0x20 DUP3 ADD DUP2 DUP1 CALLDATASIZE DUP4 CALLDATACOPY ADD SWAP1 POP JUMPDEST POP SWAP1 POP JUMPDEST DUP5 ISZERO PUSH2 0xCAF JUMPI PUSH2 0xC41 PUSH1 0x1 DUP4 PUSH2 0xD9D JUMP JUMPDEST SWAP2 POP PUSH2 0xC4E PUSH1 0xA DUP7 PUSH2 0xDCC JUMP JUMPDEST PUSH2 0xC59 SWAP1 PUSH1 0x30 PUSH2 0xE0D JUMP JUMPDEST PUSH1 0xF8 SHL DUP2 DUP4 DUP2 MLOAD DUP2 LT PUSH2 0xC6E JUMPI PUSH2 0xC6E PUSH2 0xDE0 JUMP JUMPDEST PUSH1 0x20 ADD ADD SWAP1 PUSH31 0xFFFFFFFFFFFFFFFFFFFFFFFFFFFFFFFFFFFFFFFFFFFFFFFFFFFFFFFFFFFFFF NOT AND SWAP1 DUP2 PUSH1 0x0 BYTE SWAP1 MSTORE8 POP PUSH2 0xCA8 PUSH1 0xA DUP7 PUSH2 0xEE3 JUMP JUMPDEST SWAP5 POP PUSH2 0xC30 JUMP JUMPDEST SWAP5 SWAP4 POP POP POP POP JUMP JUMPDEST POP DUP1 SLOAD PUSH1 0x0 DUP3 SSTORE SWAP1 PUSH1 0x0 MSTORE PUSH1 0x20 PUSH1 0x0 KECCAK256 SWAP1 DUP2 ADD SWAP1 PUSH2 0xCD5 SWAP2 SWAP1 PUSH2 0xCD8 JUMP JUMPDEST POP JUMP JUMPDEST JUMPDEST DUP1 DUP3 GT ISZERO PUSH2 0xCED JUMPI PUSH1 0x0 DUP2 SSTORE PUSH1 0x1 ADD PUSH2 0xCD9 JUMP JUMPDEST POP SWAP1 JUMP JUMPDEST PUSH1 0x20 DUP1 DUP3 MSTORE DUP3 MLOAD DUP3 DUP3 ADD DUP2 SWAP1 MSTORE PUSH1 0x0 SWAP2 SWAP1 DUP5 DUP3 ADD SWAP1 PUSH1 0x40 DUP6 ADD SWAP1 DUP5 JUMPDEST DUP2 DUP2 LT ISZERO PUSH2 0xD32 JUMPI DUP4 MLOAD PUSH1 0x1 PUSH1 0x1 PUSH1 0xA0 SHL SUB AND DUP4 MSTORE SWAP3 DUP5 ADD SWAP3 SWAP2 DUP5 ADD SWAP2 PUSH1 0x1 ADD PUSH2 0xD0D JUMP JUMPDEST POP SWAP1 SWAP7 SWAP6 POP POP POP POP POP POP JUMP JUMPDEST PUSH1 0x0 PUSH1 0x20 DUP3 DUP5 SUB SLT ISZERO PUSH2 0xD50 JUMPI PUSH1 0x0 DUP1 REVERT JUMPDEST POP CALLDATALOAD SWAP2 SWAP1 POP JUMP JUMPDEST PUSH1 0x0 PUSH1 0x20 DUP3 DUP5 SUB SLT ISZERO PUSH2 0xD69 JUMPI PUSH1 0x0 DUP1 REVERT JUMPDEST DUP2 CALLDATALOAD PUSH1 0x1 PUSH1 0x1 PUSH1 0xA0 SHL SUB DUP2 AND DUP2 EQ PUSH2 0xD80 JUMPI PUSH1 0x0 DUP1 REVERT JUMPDEST SWAP4 SWAP3 POP POP POP JUMP JUMPDEST PUSH4 0x4E487B71 PUSH1 0xE0 SHL PUSH1 0x0 MSTORE PUSH1 0x11 PUSH1 0x4 MSTORE PUSH1 0x24 PUSH1 0x0 REVERT JUMPDEST DUP2 DUP2 SUB DUP2 DUP2 GT ISZERO PUSH2 0xDB0 JUMPI PUSH2 0xDB0 PUSH2 0xD87 JUMP JUMPDEST SWAP3 SWAP2 POP POP JUMP JUMPDEST PUSH4 0x4E487B71 PUSH1 0xE0 SHL PUSH1 0x0 MSTORE PUSH1 0x12 PUSH1 0x4 MSTORE PUSH1 0x24 PUSH1 0x0 REVERT JUMPDEST PUSH1 0x0 DUP3 PUSH2 0xDDB JUMPI PUSH2 0xDDB PUSH2 0xDB6 JUMP JUMPDEST POP MOD SWAP1 JUMP JUMPDEST PUSH4 0x4E487B71 PUSH1 0xE0 SHL PUSH1 0x0 MSTORE PUSH1 0x32 PUSH1 0x4 MSTORE PUSH1 0x24 PUSH1 0x0 REVERT JUMPDEST DUP1 DUP3 MUL DUP2 ISZERO DUP3 DUP3 DIV DUP5 EQ OR PUSH2 0xDB0 JUMPI PUSH2 0xDB0 PUSH2 0xD87 JUMP JUMPDEST DUP1 DUP3 ADD DUP1 DUP3 GT ISZERO PUSH2 0xDB0 JUMPI PUSH2 0xDB0 PUSH2 0xD87 JUMP JUMPDEST PUSH1 0x0 JUMPDEST DUP4 DUP2 LT ISZERO PUSH2 0xE3B JUMPI DUP2 DUP2 ADD MLOAD DUP4 DUP3 ADD MSTORE PUSH1 0x20 ADD PUSH2 0xE23 JUMP JUMPDEST POP POP PUSH1 0x0 SWAP2 ADD MSTORE JUMP JUMPDEST PUSH32 0x7468652076616C7565206D757374206265206D756C7469706C65206F66200000 DUP2 MSTORE PUSH1 0x0 DUP3 MLOAD PUSH2 0xE7C DUP2 PUSH1 0x1E DUP6 ADD PUSH1 0x20 DUP8 ADD PUSH2 0xE20 JUMP JUMPDEST PUSH32 0x2045746865720000000000000000000000000000000000000000000000000000 PUSH1 0x1E SWAP4 SWAP1 SWAP2 ADD SWAP3 DUP4 ADD MSTORE POP PUSH1 0x24 ADD SWAP2 SWAP1 POP JUMP JUMPDEST PUSH1 0x20 DUP2 MSTORE PUSH1 0x0 DUP3 MLOAD DUP1 PUSH1 0x20 DUP5 ADD MSTORE PUSH2 0xECF DUP2 PUSH1 0x40 DUP6 ADD PUSH1 0x20 DUP8 ADD PUSH2 0xE20 JUMP JUMPDEST PUSH1 0x1F ADD PUSH1 0x1F NOT AND SWAP2 SWAP1 SWAP2 ADD PUSH1 0x40 ADD SWAP3 SWAP2 POP POP JUMP JUMPDEST PUSH1 0x0 DUP3 PUSH2 0xEF2 JUMPI PUSH2 0xEF2 PUSH2 0xDB6 JUMP JUMPDEST POP DIV SWAP1 JUMP JUMPDEST PUSH1 0x0 PUSH1 0x1 DUP3 ADD PUSH2 0xF09 JUMPI PUSH2 0xF09 PUSH2 0xD87 JUMP JUMPDEST POP PUSH1 0x1 ADD SWAP1 JUMP JUMPDEST PUSH4 0x4E487B71 PUSH1 0xE0 SHL PUSH1 0x0 MSTORE PUSH1 0x41 PUSH1 0x4 MSTORE PUSH1 0x24 PUSH1 0x0 REVERT INVALID LOG2 PUSH5 0x6970667358 0x22 SLT KECCAK256 0x28 MSTORE 0xE1 MOD 0xC9 DIV EXTCODESIZE DUP1 0xA9 0xC4 0xB4 0xB8 0x4C BLOCKHASH ADD PUSH18 0x2496CD3F79F8BA3898F0CC0C20558D136473 PUSH16 0x6C634300081100330000000000000000 "
    },
    "gasEstimates": {
      "creation": {
        "codeDepositCost": "786400",
        "executionCost": "52248",
        "totalCost": "838648"
      },
      "external": {
        "BuyTickets()": "infinite",
        "CurrentWinningReward()": "2468",
        "DrawWinnerTicket()": "infinite",
        "IsWinner()": "2405",
        "RefundAll()": "infinite",
        "RemainingTickets()": "2472",
        "WithdrawCommission()": "infinite",
        "WithdrawWinnings()": "infinite",
        "checkWinningsAmount()": "2418",
        "duration()": "230",
        "expiration()": "2330",
        "getTickets()": "infinite",
        "getWinningsForAddress(address)": "2580",
        "lastWinner()": "2425",
        "lastWinnerAmount()": "2331",
        "lotteryOperator()": "2404",
        "maxTickets()": "251",
        "operatorTotalCommission()": "2329",
        "restartDraw()": "infinite",
        "ticketCommission()": "273",
        "ticketPrice()": "252",
        "tickets(uint256)": "4659",
        "winnings(address)": "2517"
      }
    },
    "methodIdentifiers": {
      "BuyTickets()": "91d8b14e",
      "CurrentWinningReward()": "c6944fa0",
      "DrawWinnerTicket()": "4788af7c",
      "IsWinner()": "96c85ef3",
      "RefundAll()": "a88f4672",
      "RemainingTickets()": "93a563b5",
      "WithdrawCommission()": "35580df2",
      "WithdrawWinnings()": "71827b7b",
      "checkWinningsAmount()": "0789c607",
      "duration()": "0fb5a6b4",
      "expiration()": "4665096d",
      "getTickets()": "4ed02622",
      "getWinningsForAddress(address)": "dd64e534",
      "lastWinner()": "fe188184",
      "lastWinnerAmount()": "06f7f3bf",
      "lotteryOperator()": "5a58acdd",
      "maxTickets()": "9b894703",
      "operatorTotalCommission()": "ba946d79",
      "restartDraw()": "f2613269",
      "ticketCommission()": "6032a4f9",
      "ticketPrice()": "1209b1f6",
      "tickets(uint256)": "50b44712",
      "winnings(address)": "ea3a1499"
    }
  },
  "storageLayout": {
    "storage": [
      {
        "astId": 888,
        "contract": "Lottery_20230205205541.sol:Lottery",
        "label": "expiration",
        "offset": 0,
        "slot": "0",
        "type": "t_uint256"
      },
      {
        "astId": 890,
        "contract": "Lottery_20230205205541.sol:Lottery",
        "label": "lotteryOperator",
        "offset": 0,
        "slot": "1",
        "type": "t_address"
      },
      {
        "astId": 893,
        "contract": "Lottery_20230205205541.sol:Lottery",
        "label": "operatorTotalCommission",
        "offset": 0,
        "slot": "2",
        "type": "t_uint256"
      },
      {
        "astId": 895,
        "contract": "Lottery_20230205205541.sol:Lottery",
        "label": "lastWinner",
        "offset": 0,
        "slot": "3",
        "type": "t_address"
      },
      {
        "astId": 897,
        "contract": "Lottery_20230205205541.sol:Lottery",
        "label": "lastWinnerAmount",
        "offset": 0,
        "slot": "4",
        "type": "t_uint256"
      },
      {
        "astId": 901,
        "contract": "Lottery_20230205205541.sol:Lottery",
        "label": "winnings",
        "offset": 0,
        "slot": "5",
        "type": "t_mapping(t_address,t_uint256)"
      },
      {
        "astId": 904,
        "contract": "Lottery_20230205205541.sol:Lottery",
        "label": "tickets",
        "offset": 0,
        "slot": "6",
        "type": "t_array(t_address)dyn_storage"
      }
    ],
    "types": {
      "t_address": {
        "encoding": "inplace",
        "label": "address",
        "numberOfBytes": "20"
      },
      "t_array(t_address)dyn_storage": {
        "base": "t_address",
        "encoding": "dynamic_array",
        "label": "address[]",
        "numberOfBytes": "32"
      },
      "t_mapping(t_address,t_uint256)": {
        "encoding": "mapping",
        "key": "t_address",
        "label": "mapping(address => uint256)",
        "numberOfBytes": "32",
        "value": "t_uint256"
      },
      "t_uint256": {
        "encoding": "inplace",
        "label": "uint256",
        "numberOfBytes": "32"
      }
    }
  },
  "userdoc": {
    "kind": "user",
    "methods": {},
    "version": 1
  }
}